{
  "contractName": "ProviderContract",
  "abi": [
    {
      "inputs": [
        {
          "internalType": "uint256",
          "name": "rate_",
          "type": "uint256"
        },
        {
          "internalType": "address payable",
          "name": "wallet_",
          "type": "address"
        },
        {
          "internalType": "contract IERC20",
          "name": "token_",
          "type": "address"
        }
      ],
      "stateMutability": "nonpayable",
      "type": "constructor"
    },
    {
      "anonymous": false,
      "inputs": [
        {
          "indexed": true,
          "internalType": "address",
          "name": "buyer",
          "type": "address"
        },
        {
          "indexed": true,
          "internalType": "address",
          "name": "beneficiary",
          "type": "address"
        },
        {
          "indexed": false,
          "internalType": "uint256",
          "name": "amountOfETH",
          "type": "uint256"
        },
        {
          "indexed": false,
          "internalType": "uint256",
          "name": "amountOfTokens",
          "type": "uint256"
        }
      ],
      "name": "BuyTokens",
      "type": "event"
    },
    {
      "anonymous": false,
      "inputs": [
        {
          "indexed": true,
          "internalType": "bytes32",
          "name": "role",
          "type": "bytes32"
        },
        {
          "indexed": true,
          "internalType": "bytes32",
          "name": "previousAdminRole",
          "type": "bytes32"
        },
        {
          "indexed": true,
          "internalType": "bytes32",
          "name": "newAdminRole",
          "type": "bytes32"
        }
      ],
      "name": "RoleAdminChanged",
      "type": "event"
    },
    {
      "anonymous": false,
      "inputs": [
        {
          "indexed": true,
          "internalType": "bytes32",
          "name": "role",
          "type": "bytes32"
        },
        {
          "indexed": true,
          "internalType": "address",
          "name": "account",
          "type": "address"
        },
        {
          "indexed": true,
          "internalType": "address",
          "name": "sender",
          "type": "address"
        }
      ],
      "name": "RoleGranted",
      "type": "event"
    },
    {
      "anonymous": false,
      "inputs": [
        {
          "indexed": true,
          "internalType": "bytes32",
          "name": "role",
          "type": "bytes32"
        },
        {
          "indexed": true,
          "internalType": "address",
          "name": "account",
          "type": "address"
        },
        {
          "indexed": true,
          "internalType": "address",
          "name": "sender",
          "type": "address"
        }
      ],
      "name": "RoleRevoked",
      "type": "event"
    },
    {
      "anonymous": false,
      "inputs": [
        {
          "indexed": true,
          "internalType": "address",
          "name": "seller",
          "type": "address"
        },
        {
          "indexed": true,
          "internalType": "address",
          "name": "beneficiary",
          "type": "address"
        },
        {
          "indexed": false,
          "internalType": "uint256",
          "name": "amountOfTokens",
          "type": "uint256"
        },
        {
          "indexed": false,
          "internalType": "uint256",
          "name": "amountOfETH",
          "type": "uint256"
        }
      ],
      "name": "SellTokens",
      "type": "event"
    },
    {
      "inputs": [],
      "name": "DEFAULT_ADMIN_ROLE",
      "outputs": [
        {
          "internalType": "bytes32",
          "name": "",
          "type": "bytes32"
        }
      ],
      "stateMutability": "view",
      "type": "function"
    },
    {
      "inputs": [],
      "name": "TRANSFER_ROLE",
      "outputs": [
        {
          "internalType": "bytes32",
          "name": "",
          "type": "bytes32"
        }
      ],
      "stateMutability": "view",
      "type": "function"
    },
    {
      "inputs": [
        {
          "internalType": "bytes32",
          "name": "role",
          "type": "bytes32"
        }
      ],
      "name": "getRoleAdmin",
      "outputs": [
        {
          "internalType": "bytes32",
          "name": "",
          "type": "bytes32"
        }
      ],
      "stateMutability": "view",
      "type": "function"
    },
    {
      "inputs": [
        {
          "internalType": "bytes32",
          "name": "role",
          "type": "bytes32"
        },
        {
          "internalType": "address",
          "name": "account",
          "type": "address"
        }
      ],
      "name": "grantRole",
      "outputs": [],
      "stateMutability": "nonpayable",
      "type": "function"
    },
    {
      "inputs": [
        {
          "internalType": "bytes32",
          "name": "role",
          "type": "bytes32"
        },
        {
          "internalType": "address",
          "name": "account",
          "type": "address"
        }
      ],
      "name": "hasRole",
      "outputs": [
        {
          "internalType": "bool",
          "name": "",
          "type": "bool"
        }
      ],
      "stateMutability": "view",
      "type": "function"
    },
    {
      "inputs": [
        {
          "internalType": "bytes32",
          "name": "role",
          "type": "bytes32"
        },
        {
          "internalType": "address",
          "name": "account",
          "type": "address"
        }
      ],
      "name": "renounceRole",
      "outputs": [],
      "stateMutability": "nonpayable",
      "type": "function"
    },
    {
      "inputs": [
        {
          "internalType": "bytes32",
          "name": "role",
          "type": "bytes32"
        },
        {
          "internalType": "address",
          "name": "account",
          "type": "address"
        }
      ],
      "name": "revokeRole",
      "outputs": [],
      "stateMutability": "nonpayable",
      "type": "function"
    },
    {
      "inputs": [
        {
          "internalType": "bytes4",
          "name": "interfaceId",
          "type": "bytes4"
        }
      ],
      "name": "supportsInterface",
      "outputs": [
        {
          "internalType": "bool",
          "name": "",
          "type": "bool"
        }
      ],
      "stateMutability": "view",
      "type": "function"
    },
    {
      "stateMutability": "payable",
      "type": "receive"
    },
    {
      "inputs": [
        {
          "internalType": "uint256",
          "name": "newBuyPrice",
          "type": "uint256"
        }
      ],
      "name": "setPrices",
      "outputs": [],
      "stateMutability": "nonpayable",
      "type": "function"
    },
    {
      "inputs": [],
      "name": "weiPrices",
      "outputs": [
        {
          "internalType": "uint256",
          "name": "",
          "type": "uint256"
        }
      ],
      "stateMutability": "view",
      "type": "function"
    },
    {
      "inputs": [
        {
          "internalType": "uint256",
          "name": "_tokensPerEth",
          "type": "uint256"
        }
      ],
      "name": "setRate",
      "outputs": [],
      "stateMutability": "nonpayable",
      "type": "function"
    },
    {
      "inputs": [],
      "name": "rate",
      "outputs": [
        {
          "internalType": "uint256",
          "name": "",
          "type": "uint256"
        }
      ],
      "stateMutability": "view",
      "type": "function"
    },
    {
      "inputs": [
        {
          "internalType": "address",
          "name": "beneficiary",
          "type": "address"
        }
      ],
      "name": "buyTokens",
      "outputs": [],
      "stateMutability": "payable",
      "type": "function"
    },
    {
      "inputs": [
        {
          "internalType": "uint256",
          "name": "tokenAmountToSell",
          "type": "uint256"
        }
      ],
      "name": "sellTokens",
      "outputs": [],
      "stateMutability": "payable",
      "type": "function"
    },
    {
      "inputs": [],
      "name": "withdraw",
      "outputs": [],
      "stateMutability": "nonpayable",
      "type": "function"
    },
    {
      "inputs": [
        {
          "internalType": "address payable",
          "name": "_to",
          "type": "address"
        }
      ],
      "name": "withdrawMoneyTo",
      "outputs": [],
      "stateMutability": "nonpayable",
      "type": "function"
    },
    {
      "inputs": [],
      "name": "getBalance",
      "outputs": [
        {
          "internalType": "uint256",
          "name": "",
          "type": "uint256"
        }
      ],
      "stateMutability": "view",
      "type": "function"
    },
    {
      "inputs": [
        {
          "internalType": "address",
          "name": "account",
          "type": "address"
        }
      ],
      "name": "addTransferRole",
      "outputs": [],
      "stateMutability": "nonpayable",
      "type": "function"
    },
    {
      "inputs": [
        {
          "internalType": "address",
          "name": "account",
          "type": "address"
        }
      ],
      "name": "_removeTransferRole",
      "outputs": [],
      "stateMutability": "nonpayable",
      "type": "function"
    },
    {
      "inputs": [],
      "name": "token",
      "outputs": [
        {
          "internalType": "contract IERC20",
          "name": "",
          "type": "address"
        }
      ],
      "stateMutability": "view",
      "type": "function"
    },
    {
      "inputs": [],
      "name": "wallet",
      "outputs": [
        {
          "internalType": "address payable",
          "name": "",
          "type": "address"
        }
      ],
      "stateMutability": "view",
      "type": "function"
    }
  ],
  "bytecode": "0x60806040523480156200001157600080fd5b5060405162003418380380620034188339818101604052810190620000379190620003cf565b600180819055506000831162000084576040517f08c379a00000000000000000000000000000000000000000000000000000000081526004016200007b906200057b565b60405180910390fd5b600073ffffffffffffffffffffffffffffffffffffffff168273ffffffffffffffffffffffffffffffffffffffff161415620000f7576040517f08c379a0000000000000000000000000000000000000000000000000000000008152600401620000ee9062000537565b60405180910390fd5b600073ffffffffffffffffffffffffffffffffffffffff168173ffffffffffffffffffffffffffffffffffffffff1614156200016a576040517f08c379a0000000000000000000000000000000000000000000000000000000008152600401620001619062000559565b60405180910390fd5b80600460006101000a81548173ffffffffffffffffffffffffffffffffffffffff021916908373ffffffffffffffffffffffffffffffffffffffff16021790555081600560006101000a81548173ffffffffffffffffffffffffffffffffffffffff021916908373ffffffffffffffffffffffffffffffffffffffff16021790555082600381905550620002086000801b336200021160201b60201c565b50505062000662565b6200022382826200022760201b60201c565b5050565b6200023982826200031860201b60201c565b6200031457600160008084815260200190815260200160002060000160008373ffffffffffffffffffffffffffffffffffffffff1673ffffffffffffffffffffffffffffffffffffffff16815260200190815260200160002060006101000a81548160ff021916908315150217905550620002b96200038260201b60201c565b73ffffffffffffffffffffffffffffffffffffffff168173ffffffffffffffffffffffffffffffffffffffff16837f2f8788117e7eff1d82e926ec794901d17c78024a50270940304540a733656f0d60405160405180910390a45b5050565b600080600084815260200190815260200160002060000160008373ffffffffffffffffffffffffffffffffffffffff1673ffffffffffffffffffffffffffffffffffffffff16815260200190815260200160002060009054906101000a900460ff16905092915050565b600033905090565b6000815190506200039b8162000614565b92915050565b600081519050620003b2816200062e565b92915050565b600081519050620003c98162000648565b92915050565b600080600060608486031215620003e557600080fd5b6000620003f586828701620003b8565b935050602062000408868287016200038a565b92505060406200041b86828701620003a1565b9150509250925092565b600062000434602c836200059d565b91507f50726f7669646572436f6e74726163743a2077616c6c6574206973207468652060008301527f7a65726f206164647265737300000000000000000000000000000000000000006020830152604082019050919050565b60006200049c602b836200059d565b91507f50726f7669646572436f6e74726163743a20746f6b656e20697320746865207a60008301527f65726f20616464726573730000000000000000000000000000000000000000006020830152604082019050919050565b600062000504601b836200059d565b91507f50726f7669646572436f6e74726163743a2072617465206973203000000000006000830152602082019050919050565b60006020820190508181036000830152620005528162000425565b9050919050565b6000602082019050818103600083015262000574816200048d565b9050919050565b600060208201905081810360008301526200059681620004f5565b9050919050565b600082825260208201905092915050565b6000620005bb82620005ea565b9050919050565b6000620005cf82620005ea565b9050919050565b6000620005e382620005ae565b9050919050565b600073ffffffffffffffffffffffffffffffffffffffff82169050919050565b6000819050919050565b6200061f81620005c2565b81146200062b57600080fd5b50565b6200063981620005d6565b81146200064557600080fd5b50565b62000653816200060a565b81146200065f57600080fd5b50565b612da680620006726000396000f3fe60806040526004361061012e5760003560e01c80633ccfd60b116100ab578063a3201daa1161006f578063a3201daa146103d8578063bbb5371114610401578063d547741f1461042c578063d635e44114610455578063ec8ac4d81461047e578063fc0c546a1461049a57610145565b80633ccfd60b14610312578063521eb273146103295780636c11bcd31461035457806391d1485414610370578063a217fddf146103ad57610145565b8063248a9ca3116100f2578063248a9ca31461022f5780632c4e722e1461026c5780632f2ff15d1461029757806334fcf437146102c057806336568abe146102e957610145565b806301ffc9a71461014a5780630ff8d8a51461018757806312065fe0146101b057806315c60e3c146101db578063206b60f91461020457610145565b366101455761014361013e6104c5565b6104cd565b005b600080fd5b34801561015657600080fd5b50610171600480360381019061016c9190611e63565b610739565b60405161017e919061275b565b60405180910390f35b34801561019357600080fd5b506101ae60048036038101906101a99190611dac565b6107b3565b005b3480156101bc57600080fd5b506101c56108a1565b6040516101d291906129ce565b60405180910390f35b3480156101e757600080fd5b5061020260048036038101906101fd9190611d83565b6108e2565b005b34801561021057600080fd5b50610219610925565b6040516102269190612776565b60405180910390f35b34801561023b57600080fd5b5061025660048036038101906102519190611dfe565b610949565b6040516102639190612776565b60405180910390f35b34801561027857600080fd5b50610281610968565b60405161028e91906129ce565b60405180910390f35b3480156102a357600080fd5b506102be60048036038101906102b99190611e27565b610972565b005b3480156102cc57600080fd5b506102e760048036038101906102e29190611e8c565b61099b565b005b3480156102f557600080fd5b50610310600480360381019061030b9190611e27565b6109bb565b005b34801561031e57600080fd5b50610327610a3e565b005b34801561033557600080fd5b5061033e610c20565b60405161034b91906126e0565b60405180910390f35b61036e60048036038101906103699190611e8c565b610c4a565b005b34801561037c57600080fd5b5061039760048036038101906103929190611e27565b611129565b6040516103a4919061275b565b60405180910390f35b3480156103b957600080fd5b506103c2611193565b6040516103cf9190612776565b60405180910390f35b3480156103e457600080fd5b506103ff60048036038101906103fa9190611e8c565b61119a565b005b34801561040d57600080fd5b506104166111ba565b60405161042391906129ce565b60405180910390f35b34801561043857600080fd5b50610453600480360381019061044e9190611e27565b6111c4565b005b34801561046157600080fd5b5061047c60048036038101906104779190611d83565b6111ed565b005b61049860048036038101906104939190611d83565b6104cd565b005b3480156104a657600080fd5b506104af611230565b6040516104bc9190612791565b60405180910390f35b600033905090565b7f8502233096d909befbda0999bb8ea2f3a6be3c138b9fbf003752a4c8bce86f6c6104ff816104fa6104c5565b61125a565b60026001541415610545576040517f08c379a000000000000000000000000000000000000000000000000000000000815260040161053c9061298e565b60405180910390fd5b6002600181905550600034905061055c83826112f7565b6000610567826113ae565b90506000600460009054906101000a900473ffffffffffffffffffffffffffffffffffffffff1673ffffffffffffffffffffffffffffffffffffffff166370a08231600560009054906101000a900473ffffffffffffffffffffffffffffffffffffffff166040518263ffffffff1660e01b81526004016105e891906126c5565b60206040518083038186803b15801561060057600080fd5b505afa158015610614573d6000803e3d6000fd5b505050506040513d601f19601f820116820180604052508101906106389190611eb5565b90508181101561067d576040517f08c379a00000000000000000000000000000000000000000000000000000000081526004016106749061294e565b60405180910390fd5b610692836002546113cc90919063ffffffff16565b6002819055506106a285836113e2565b8473ffffffffffffffffffffffffffffffffffffffff166106c16104c5565b73ffffffffffffffffffffffffffffffffffffffff167e77a7b9b8b8207f3903ca75eade7730a828eadd952909ed2de6b640b069fb1785856040516107079291906129e9565b60405180910390a361071985846113f0565b6107216113f4565b61072b858461145f565b505050600180819055505050565b60007f7965db0b000000000000000000000000000000000000000000000000000000007bffffffffffffffffffffffffffffffffffffffffffffffffffffffff1916827bffffffffffffffffffffffffffffffffffffffffffffffffffffffff191614806107ac57506107ab82611463565b5b9050919050565b600260015414156107f9576040517f08c379a00000000000000000000000000000000000000000000000000000000081526004016107f09061298e565b60405180910390fd5b60026001819055506000801b610816816108116104c5565b61125a565b8173ffffffffffffffffffffffffffffffffffffffff166108fc600560009054906101000a900473ffffffffffffffffffffffffffffffffffffffff1673ffffffffffffffffffffffffffffffffffffffff16319081150290604051600060405180830381858888f19350505050158015610895573d6000803e3d6000fd5b50506001808190555050565b6000600560009054906101000a900473ffffffffffffffffffffffffffffffffffffffff1673ffffffffffffffffffffffffffffffffffffffff1631905090565b6000801b6108f7816108f26104c5565b61125a565b6109217f8502233096d909befbda0999bb8ea2f3a6be3c138b9fbf003752a4c8bce86f6c836114cd565b5050565b7f8502233096d909befbda0999bb8ea2f3a6be3c138b9fbf003752a4c8bce86f6c81565b6000806000838152602001908152602001600020600101549050919050565b6000600354905090565b61097b82610949565b61098c816109876104c5565b61125a565b61099683836114db565b505050565b6000801b6109b0816109ab6104c5565b61125a565b816003819055505050565b6109c36104c5565b73ffffffffffffffffffffffffffffffffffffffff168173ffffffffffffffffffffffffffffffffffffffff1614610a30576040517f08c379a0000000000000000000000000000000000000000000000000000000008152600401610a27906129ae565b60405180910390fd5b610a3a82826115bb565b5050565b60026001541415610a84576040517f08c379a0000000000000000000000000000000000000000000000000000000008152600401610a7b9061298e565b60405180910390fd5b60026001819055506000801b610aa181610a9c6104c5565b61125a565b6000600560009054906101000a900473ffffffffffffffffffffffffffffffffffffffff1673ffffffffffffffffffffffffffffffffffffffff1631905060008111610b22576040517f08c379a0000000000000000000000000000000000000000000000000000000008152600401610b199061292e565b60405180910390fd5b6000610b2c6104c5565b905060008173ffffffffffffffffffffffffffffffffffffffff16600560009054906101000a900473ffffffffffffffffffffffffffffffffffffffff1673ffffffffffffffffffffffffffffffffffffffff1631604051610b8d9061265b565b60006040518083038185875af1925050503d8060008114610bca576040519150601f19603f3d011682016040523d82523d6000602084013e610bcf565b606091505b5050905080610c13576040517f08c379a0000000000000000000000000000000000000000000000000000000008152600401610c0a906128ee565b60405180910390fd5b5050505060018081905550565b6000600560009054906101000a900473ffffffffffffffffffffffffffffffffffffffff16905090565b7f8502233096d909befbda0999bb8ea2f3a6be3c138b9fbf003752a4c8bce86f6c610c7c81610c776104c5565b61125a565b60026001541415610cc2576040517f08c379a0000000000000000000000000000000000000000000000000000000008152600401610cb99061298e565b60405180910390fd5b600260018190555060008211610d0d576040517f08c379a0000000000000000000000000000000000000000000000000000000008152600401610d04906128ae565b60405180910390fd5b6000600460009054906101000a900473ffffffffffffffffffffffffffffffffffffffff1673ffffffffffffffffffffffffffffffffffffffff166370a08231610d556104c5565b6040518263ffffffff1660e01b8152600401610d7191906126aa565b60206040518083038186803b158015610d8957600080fd5b505afa158015610d9d573d6000803e3d6000fd5b505050506040513d601f19601f82011682018060405250810190610dc19190611eb5565b905082811015610e06576040517f08c379a0000000000000000000000000000000000000000000000000000000008152600401610dfd9061282e565b60405180910390fd5b6000600354670de0b6b3a764000085610e1f9190612ad6565b610e299190612aa5565b90506000600560009054906101000a900473ffffffffffffffffffffffffffffffffffffffff1673ffffffffffffffffffffffffffffffffffffffff1631905081811015610eac576040517f08c379a0000000000000000000000000000000000000000000000000000000008152600401610ea3906128ce565b60405180910390fd5b6000600460009054906101000a900473ffffffffffffffffffffffffffffffffffffffff1673ffffffffffffffffffffffffffffffffffffffff166323b872dd610ef46104c5565b600560009054906101000a900473ffffffffffffffffffffffffffffffffffffffff16670de0b6b3a76400008a610f2b9190612ad6565b6040518463ffffffff1660e01b8152600401610f49939291906126fb565b602060405180830381600087803b158015610f6357600080fd5b505af1158015610f77573d6000803e3d6000fd5b505050506040513d601f19601f82011682018060405250810190610f9b9190611dd5565b905080610fdd576040517f08c379a0000000000000000000000000000000000000000000000000000000008152600401610fd49061280e565b60405180910390fd5b60003373ffffffffffffffffffffffffffffffffffffffff16846040516110039061265b565b60006040518083038185875af1925050503d8060008114611040576040519150601f19603f3d011682016040523d82523d6000602084013e611045565b606091505b5050905080611089576040517f08c379a00000000000000000000000000000000000000000000000000000000081526004016110809061286e565b60405180910390fd5b600560009054906101000a900473ffffffffffffffffffffffffffffffffffffffff1673ffffffffffffffffffffffffffffffffffffffff166110ca6104c5565b73ffffffffffffffffffffffffffffffffffffffff167fff2afda133c9b6f79fb89361d99b8b52b06df2ff712b031645a56cd5acba1512868a6040516111119291906129e9565b60405180910390a35050505050600180819055505050565b600080600084815260200190815260200160002060000160008373ffffffffffffffffffffffffffffffffffffffff1673ffffffffffffffffffffffffffffffffffffffff16815260200190815260200160002060009054906101000a900460ff16905092915050565b6000801b81565b6000801b6111af816111aa6104c5565b61125a565b816002819055505050565b6000600254905090565b6111cd82610949565b6111de816111d96104c5565b61125a565b6111e883836115bb565b505050565b6000801b611202816111fd6104c5565b61125a565b61122c7f8502233096d909befbda0999bb8ea2f3a6be3c138b9fbf003752a4c8bce86f6c836114cd565b5050565b6000600460009054906101000a900473ffffffffffffffffffffffffffffffffffffffff16905090565b6112648282611129565b6112f3576112898173ffffffffffffffffffffffffffffffffffffffff16601461169c565b6112978360001c602061169c565b6040516020016112a8929190612670565b6040516020818303038152906040526040517f08c379a00000000000000000000000000000000000000000000000000000000081526004016112ea91906127ac565b60405180910390fd5b5050565b600073ffffffffffffffffffffffffffffffffffffffff168273ffffffffffffffffffffffffffffffffffffffff161415611367576040517f08c379a000000000000000000000000000000000000000000000000000000000815260040161135e9061284e565b60405180910390fd5b600081116113aa576040517f08c379a00000000000000000000000000000000000000000000000000000000081526004016113a1906127ce565b60405180910390fd5b5050565b60006113c56003548361199690919063ffffffff16565b9050919050565b600081836113da9190612a4f565b905092915050565b6113ec82826119ac565b5050565b5050565b600560009054906101000a900473ffffffffffffffffffffffffffffffffffffffff1673ffffffffffffffffffffffffffffffffffffffff166108fc349081150290604051600060405180830381858888f1935050505015801561145c573d6000803e3d6000fd5b50565b5050565b60007f01ffc9a7000000000000000000000000000000000000000000000000000000007bffffffffffffffffffffffffffffffffffffffffffffffffffffffff1916827bffffffffffffffffffffffffffffffffffffffffffffffffffffffff1916149050919050565b6114d782826114db565b5050565b6114e58282611129565b6115b757600160008084815260200190815260200160002060000160008373ffffffffffffffffffffffffffffffffffffffff1673ffffffffffffffffffffffffffffffffffffffff16815260200190815260200160002060006101000a81548160ff02191690831515021790555061155c6104c5565b73ffffffffffffffffffffffffffffffffffffffff168173ffffffffffffffffffffffffffffffffffffffff16837f2f8788117e7eff1d82e926ec794901d17c78024a50270940304540a733656f0d60405160405180910390a45b5050565b6115c58282611129565b1561169857600080600084815260200190815260200160002060000160008373ffffffffffffffffffffffffffffffffffffffff1673ffffffffffffffffffffffffffffffffffffffff16815260200190815260200160002060006101000a81548160ff02191690831515021790555061163d6104c5565b73ffffffffffffffffffffffffffffffffffffffff168173ffffffffffffffffffffffffffffffffffffffff16837ff6391f5c32d9c69d2a47ea670b442974b53935d1edc7fd64eb21e047a839171b60405160405180910390a45b5050565b6060600060028360026116af9190612ad6565b6116b99190612a4f565b67ffffffffffffffff8111156116f8577f4e487b7100000000000000000000000000000000000000000000000000000000600052604160045260246000fd5b6040519080825280601f01601f19166020018201604052801561172a5781602001600182028036833780820191505090505b5090507f300000000000000000000000000000000000000000000000000000000000000081600081518110611788577f4e487b7100000000000000000000000000000000000000000000000000000000600052603260045260246000fd5b60200101907effffffffffffffffffffffffffffffffffffffffffffffffffffffffffffff1916908160001a9053507f780000000000000000000000000000000000000000000000000000000000000081600181518110611812577f4e487b7100000000000000000000000000000000000000000000000000000000600052603260045260246000fd5b60200101907effffffffffffffffffffffffffffffffffffffffffffffffffffffffffffff1916908160001a905350600060018460026118529190612ad6565b61185c9190612a4f565b90505b6001811115611948577f3031323334353637383961626364656600000000000000000000000000000000600f8616601081106118c4577f4e487b7100000000000000000000000000000000000000000000000000000000600052603260045260246000fd5b1a60f81b828281518110611901577f4e487b7100000000000000000000000000000000000000000000000000000000600052603260045260246000fd5b60200101907effffffffffffffffffffffffffffffffffffffffffffffffffffffffffffff1916908160001a905350600485901c94508061194190612c4d565b905061185f565b506000841461198c576040517f08c379a0000000000000000000000000000000000000000000000000000000008152600401611983906127ee565b60405180910390fd5b8091505092915050565b600081836119a49190612ad6565b905092915050565b6119f98282600460009054906101000a900473ffffffffffffffffffffffffffffffffffffffff1673ffffffffffffffffffffffffffffffffffffffff166119fd9092919063ffffffff16565b5050565b611a7e8363a9059cbb60e01b8484604051602401611a1c929190612732565b604051602081830303815290604052907bffffffffffffffffffffffffffffffffffffffffffffffffffffffff19166020820180517bffffffffffffffffffffffffffffffffffffffffffffffffffffffff8381831617835250505050611a83565b505050565b6000611ae5826040518060400160405280602081526020017f5361666545524332303a206c6f772d6c6576656c2063616c6c206661696c65648152508573ffffffffffffffffffffffffffffffffffffffff16611b4a9092919063ffffffff16565b9050600081511115611b455780806020019051810190611b059190611dd5565b611b44576040517f08c379a0000000000000000000000000000000000000000000000000000000008152600401611b3b9061296e565b60405180910390fd5b5b505050565b6060611b598484600085611b62565b90509392505050565b606082471015611ba7576040517f08c379a0000000000000000000000000000000000000000000000000000000008152600401611b9e9061288e565b60405180910390fd5b611bb085611c76565b611bef576040517f08c379a0000000000000000000000000000000000000000000000000000000008152600401611be69061290e565b60405180910390fd5b6000808673ffffffffffffffffffffffffffffffffffffffff168587604051611c189190612644565b60006040518083038185875af1925050503d8060008114611c55576040519150601f19603f3d011682016040523d82523d6000602084013e611c5a565b606091505b5091509150611c6a828286611c89565b92505050949350505050565b600080823b905060008111915050919050565b60608315611c9957829050611ce9565b600083511115611cac5782518084602001fd5b816040517f08c379a0000000000000000000000000000000000000000000000000000000008152600401611ce091906127ac565b60405180910390fd5b9392505050565b600081359050611cff81612ce6565b92915050565b600081359050611d1481612cfd565b92915050565b600081519050611d2981612d14565b92915050565b600081359050611d3e81612d2b565b92915050565b600081359050611d5381612d42565b92915050565b600081359050611d6881612d59565b92915050565b600081519050611d7d81612d59565b92915050565b600060208284031215611d9557600080fd5b6000611da384828501611cf0565b91505092915050565b600060208284031215611dbe57600080fd5b6000611dcc84828501611d05565b91505092915050565b600060208284031215611de757600080fd5b6000611df584828501611d1a565b91505092915050565b600060208284031215611e1057600080fd5b6000611e1e84828501611d2f565b91505092915050565b60008060408385031215611e3a57600080fd5b6000611e4885828601611d2f565b9250506020611e5985828601611cf0565b9150509250929050565b600060208284031215611e7557600080fd5b6000611e8384828501611d44565b91505092915050565b600060208284031215611e9e57600080fd5b6000611eac84828501611d59565b91505092915050565b600060208284031215611ec757600080fd5b6000611ed584828501611d6e565b91505092915050565b611ee781612bc0565b82525050565b611ef681612b42565b82525050565b611f0581612b30565b82525050565b611f1481612b54565b82525050565b611f2381612b60565b82525050565b6000611f3482612a12565b611f3e8185612a28565b9350611f4e818560208601612c1a565b80840191505092915050565b611f6381612bd2565b82525050565b6000611f7482612a1d565b611f7e8185612a33565b9350611f8e818560208601612c1a565b611f9781612cd5565b840191505092915050565b6000611fad82612a1d565b611fb78185612a44565b9350611fc7818560208601612c1a565b80840191505092915050565b6000611fe0603d83612a33565b91507f50726f7669646572436f6e74726163743a2053656e642045544820746f20627560008301527f7920736f6d6520746f6b656e732c20776569416d6f756e7420697320300000006020830152604082019050919050565b6000612046602083612a33565b91507f537472696e67733a20686578206c656e67746820696e73756666696369656e746000830152602082019050919050565b6000612086602f83612a33565b91507f4661696c656420746f207472616e7366657220746f6b656e732066726f6d207560008301527f73657220746f2070726f766964657200000000000000000000000000000000006020830152604082019050919050565b60006120ec604083612a33565b91507f596f75722062616c616e6365206973206c6f776572207468616e20746865206160008301527f6d6f756e74206f6620746f6b656e7320796f752077616e7420746f2073656c6c6020830152604082019050919050565b6000612152603183612a33565b91507f50726f7669646572436f6e74726163743a2042656e656669636961727920697360008301527f20746865207a65726f20616464726573730000000000000000000000000000006020830152604082019050919050565b60006121b8601483612a33565b91507f4661696c656420746f2073656e642045746865720000000000000000000000006000830152602082019050919050565b60006121f8602683612a33565b91507f416464726573733a20696e73756666696369656e742062616c616e636520666f60008301527f722063616c6c00000000000000000000000000000000000000000000000000006020830152604082019050919050565b600061225e602583612a33565b91507f596f75206e65656420746f2073656c6c206174206c6561737420736f6d65207460008301527f6f6b656e730000000000000000000000000000000000000000000000000000006020830152604082019050919050565b60006122c4603d83612a33565b91507f54686520636f6e747261637420686173206e6f7420656e6f7567682066756e6460008301527f7320746f20616363657074207468652073656c6c2072657175657374210000006020830152604082019050919050565b600061232a602d83612a33565b91507f4661696c656420746f2073656e6420757365722062616c616e6365206261636b60008301527f20746f20746865206f776e6572000000000000000000000000000000000000006020830152604082019050919050565b6000612390600083612a28565b9150600082019050919050565b60006123aa601d83612a33565b91507f416464726573733a2063616c6c20746f206e6f6e2d636f6e74726163740000006000830152602082019050919050565b60006123ea602183612a33565b91507f4f776e657220686173206e6f742062616c616e636520746f207769746864726160008301527f77000000000000000000000000000000000000000000000000000000000000006020830152604082019050919050565b6000612450603f83612a33565b91507f50726f7669646572436f6e74726163743a20436f6e747261637420686173206e60008301527f6f7420656e6f75676820746f6b656e7320696e206974732062616c616e6365006020830152604082019050919050565b60006124b6601783612a44565b91507f416363657373436f6e74726f6c3a206163636f756e74200000000000000000006000830152601782019050919050565b60006124f6602a83612a33565b91507f5361666545524332303a204552433230206f7065726174696f6e20646964206e60008301527f6f742073756363656564000000000000000000000000000000000000000000006020830152604082019050919050565b600061255c601f83612a33565b91507f5265656e7472616e637947756172643a207265656e7472616e742063616c6c006000830152602082019050919050565b600061259c601183612a44565b91507f206973206d697373696e6720726f6c65200000000000000000000000000000006000830152601182019050919050565b60006125dc602f83612a33565b91507f416363657373436f6e74726f6c3a2063616e206f6e6c792072656e6f756e636560008301527f20726f6c657320666f722073656c6600000000000000000000000000000000006020830152604082019050919050565b61263e81612bb6565b82525050565b60006126508284611f29565b915081905092915050565b600061266682612383565b9150819050919050565b600061267b826124a9565b91506126878285611fa2565b91506126928261258f565b915061269e8284611fa2565b91508190509392505050565b60006020820190506126bf6000830184611efc565b92915050565b60006020820190506126da6000830184611ede565b92915050565b60006020820190506126f56000830184611eed565b92915050565b60006060820190506127106000830186611efc565b61271d6020830185611efc565b61272a6040830184612635565b949350505050565b60006040820190506127476000830185611efc565b6127546020830184612635565b9392505050565b60006020820190506127706000830184611f0b565b92915050565b600060208201905061278b6000830184611f1a565b92915050565b60006020820190506127a66000830184611f5a565b92915050565b600060208201905081810360008301526127c68184611f69565b905092915050565b600060208201905081810360008301526127e781611fd3565b9050919050565b6000602082019050818103600083015261280781612039565b9050919050565b6000602082019050818103600083015261282781612079565b9050919050565b60006020820190508181036000830152612847816120df565b9050919050565b6000602082019050818103600083015261286781612145565b9050919050565b60006020820190508181036000830152612887816121ab565b9050919050565b600060208201905081810360008301526128a7816121eb565b9050919050565b600060208201905081810360008301526128c781612251565b9050919050565b600060208201905081810360008301526128e7816122b7565b9050919050565b600060208201905081810360008301526129078161231d565b9050919050565b600060208201905081810360008301526129278161239d565b9050919050565b60006020820190508181036000830152612947816123dd565b9050919050565b6000602082019050818103600083015261296781612443565b9050919050565b60006020820190508181036000830152612987816124e9565b9050919050565b600060208201905081810360008301526129a78161254f565b9050919050565b600060208201905081810360008301526129c7816125cf565b9050919050565b60006020820190506129e36000830184612635565b92915050565b60006040820190506129fe6000830185612635565b612a0b6020830184612635565b9392505050565b600081519050919050565b600081519050919050565b600081905092915050565b600082825260208201905092915050565b600081905092915050565b6000612a5a82612bb6565b9150612a6583612bb6565b9250827fffffffffffffffffffffffffffffffffffffffffffffffffffffffffffffffff03821115612a9a57612a99612c77565b5b828201905092915050565b6000612ab082612bb6565b9150612abb83612bb6565b925082612acb57612aca612ca6565b5b828204905092915050565b6000612ae182612bb6565b9150612aec83612bb6565b9250817fffffffffffffffffffffffffffffffffffffffffffffffffffffffffffffffff0483118215151615612b2557612b24612c77565b5b828202905092915050565b6000612b3b82612b96565b9050919050565b6000612b4d82612b96565b9050919050565b60008115159050919050565b6000819050919050565b60007fffffffff0000000000000000000000000000000000000000000000000000000082169050919050565b600073ffffffffffffffffffffffffffffffffffffffff82169050919050565b6000819050919050565b6000612bcb82612bf6565b9050919050565b6000612bdd82612be4565b9050919050565b6000612bef82612b96565b9050919050565b6000612c0182612c08565b9050919050565b6000612c1382612b96565b9050919050565b60005b83811015612c38578082015181840152602081019050612c1d565b83811115612c47576000848401525b50505050565b6000612c5882612bb6565b91506000821415612c6c57612c6b612c77565b5b600182039050919050565b7f4e487b7100000000000000000000000000000000000000000000000000000000600052601160045260246000fd5b7f4e487b7100000000000000000000000000000000000000000000000000000000600052601260045260246000fd5b6000601f19601f8301169050919050565b612cef81612b30565b8114612cfa57600080fd5b50565b612d0681612b42565b8114612d1157600080fd5b50565b612d1d81612b54565b8114612d2857600080fd5b50565b612d3481612b60565b8114612d3f57600080fd5b50565b612d4b81612b6a565b8114612d5657600080fd5b50565b612d6281612bb6565b8114612d6d57600080fd5b5056fea2646970667358221220c2a3eba1c0bb736d8b8f511774dbab08fcbc6b8a87b5a41c500e25211c335ddc64736f6c63430008000033",
  "immutableReferences": {},
  "source": "// SPDX-License-Identifier: GPL-3.0\npragma solidity ^0.8.0;\n\n\nimport \"@openzeppelin/contracts/access/AccessControl.sol\";\nimport \"@openzeppelin/contracts/security/ReentrancyGuard.sol\";\nimport \"@openzeppelin/contracts/utils/Context.sol\";\nimport \"@openzeppelin/contracts/token/ERC20/IERC20.sol\";\nimport \"@openzeppelin/contracts/utils/math/SafeMath.sol\";\nimport \"@openzeppelin/contracts/token/ERC20/utils/SafeERC20.sol\";\n\ncontract ProviderContract is Context, AccessControl, ReentrancyGuard {\n\n    using SafeMath for uint256;\n    using SafeERC20 for IERC20;\n    \n    bytes32 public constant TRANSFER_ROLE = keccak256(\"TRANSFER_ROLE\");\n    \n    uint256 private _weiRaised;\n    uint256 private _rate;\n    \n    IERC20 private _token;\n    address payable private _wallet;\n  \n    event BuyTokens(address indexed buyer, address indexed beneficiary, uint256 amountOfETH, uint256 amountOfTokens);\n    event SellTokens(address indexed seller, address indexed beneficiary, uint256 amountOfTokens, uint256 amountOfETH);\n    \n    constructor(uint256 rate_, address payable wallet_, IERC20 token_) {\n        require(rate_ > 0, \"ProviderContract: rate is 0\");\n        require(wallet_ != address(0), \"ProviderContract: wallet is the zero address\");\n        require(address(token_) != address(0), \"ProviderContract: token is the zero address\");\n        _token = token_;\n        _wallet = wallet_;\n        _rate = rate_;\n        _setupRole(DEFAULT_ADMIN_ROLE, msg.sender);\n    }\n    \n    function setPrices(uint256 newBuyPrice) onlyRole(DEFAULT_ADMIN_ROLE) public {\n        _weiRaised = newBuyPrice;\n    }\n\n    function weiPrices() public view returns (uint256) {\n        return _weiRaised;\n    }\n    \n    function setRate(uint256 _tokensPerEth) onlyRole(DEFAULT_ADMIN_ROLE) public {\n        _rate = _tokensPerEth;\n    }\n\n    function rate() public view returns (uint256) {\n        return _rate;\n    }\n    \n    function buyTokens(address beneficiary) onlyRole(TRANSFER_ROLE) public nonReentrant payable {\n        uint256 weiAmount = msg.value;\n        _preValidatePurchase(beneficiary, weiAmount);\n\n        uint256 tokensToBuy = _getTokenAmount(weiAmount);        \n\n        uint256 balance = _token.balanceOf(_wallet);\n        require(balance >= tokensToBuy, \"ProviderContract: Contract has not enough tokens in its balance\");\n    \n        _weiRaised = _weiRaised.add(weiAmount);\n\n        _processPurchase(beneficiary, tokensToBuy);\n        emit BuyTokens(_msgSender(), beneficiary, weiAmount, tokensToBuy);     \n\n        _updatePurchasingState(beneficiary, weiAmount);   \n\n        _forwardFunds();\n        _postValidatePurchase(beneficiary, weiAmount);\n    }\n\n    function _forwardFunds() internal virtual {\n        _wallet.transfer(msg.value);\n    }\n\n    function _updatePurchasingState(address beneficiary, uint256 weiAmount) internal virtual {\n        // solhint-disable-previous-line no-empty-blocks\n    }\n\n    function _deliverTokens(address beneficiary, uint256 tokenAmount) internal virtual {\n        _token.safeTransfer(beneficiary, tokenAmount);\n    }\n\n    function _processPurchase(address beneficiary, uint256 tokenAmount) internal virtual {\n        _deliverTokens(beneficiary, tokenAmount);\n    }\n\n    function _postValidatePurchase(address beneficiary, uint256 weiAmount) internal view virtual {\n        // solhint-disable-previous-line no-empty-blocks\n    }\n    \n    function _preValidatePurchase(address beneficiary, uint256 weiAmount) internal view virtual {\n        require(beneficiary != address(0), \"ProviderContract: Beneficiary is the zero address\");\n        require(weiAmount > 0, \"ProviderContract: Send ETH to buy some tokens, weiAmount is 0\");\n        this;\n    }\n    \n    function _getTokenAmount(uint256 weiAmount) internal view virtual returns (uint256) {\n        return weiAmount.mul(_rate);\n    }\n    \n    function sellTokens(uint256 tokenAmountToSell) onlyRole(TRANSFER_ROLE) public nonReentrant payable {\n        require(tokenAmountToSell > 0, \"You need to sell at least some tokens\");\n        \n        uint256 userBalance = _token.balanceOf(_msgSender());\n        require(userBalance >= tokenAmountToSell, \"Your balance is lower than the amount of tokens you want to sell\");\n        \n        uint256 amountOfETHToTransfer = (tokenAmountToSell * 1 ether) / _rate;\n        uint256 ownerETHBalance = address(_wallet).balance;\n        require(ownerETHBalance >= amountOfETHToTransfer, \"The contract has not enough funds to accept the sell request!\");\n        \n        (bool sent_token) = _token.transferFrom(_msgSender(), address(_wallet), (tokenAmountToSell * 1 ether));\n        require(sent_token, \"Failed to transfer tokens from user to provider\");\n        \n  \n        (bool sent,) = msg.sender.call{value: amountOfETHToTransfer}(\"\");\n        require(sent, \"Failed to send Ether\");   \n      \n        emit SellTokens(_msgSender(), _wallet, amountOfETHToTransfer, tokenAmountToSell);          \n    }\n    \n    function withdraw() public nonReentrant onlyRole(DEFAULT_ADMIN_ROLE) {\n        uint256 ownerBalance = address(_wallet).balance;\n        require(ownerBalance > 0, \"Owner has not balance to withdraw\");\n            \n        address payable to = payable(_msgSender());\n        (bool sent,) = to.call{value: address(_wallet).balance}(\"\");\n        require(sent, \"Failed to send user balance back to the owner\");\n    }\n    \n    function withdrawMoneyTo(address payable _to) public nonReentrant onlyRole(DEFAULT_ADMIN_ROLE)  {\n        _to.transfer(address(_wallet).balance);\n    }\n    \n    function getBalance() public view returns (uint) {\n        return address(_wallet).balance;\n    }\n    \n    function addTransferRole(address account) public onlyRole(DEFAULT_ADMIN_ROLE) {\n        _setupRole(TRANSFER_ROLE, account);\n    }\n    \n    function _removeTransferRole(address account) public onlyRole(DEFAULT_ADMIN_ROLE) {\n        _setupRole(TRANSFER_ROLE, account);\n    }\n\n    receive () external payable {\n        buyTokens(_msgSender());\n    }\n\n    function token() public view returns (IERC20) {\n        return _token;\n    }\n\n    function wallet() public view returns (address payable) {\n        return _wallet;\n    }\n}",
  "sourcePath": "/home/joseph/Documentos/TFM/tfm-proyecto-truffle/contracts/ProviderContract.sol",
  "compiler": {
    "name": "solc",
    "version": "0.8.0+commit.c7dfd78e.Emscripten.clang"
  },
  "schemaVersion": "3.4.1",
  "updatedAt": "2021-11-28T05:05:20.625Z",
  "devdoc": {
    "kind": "dev",
    "methods": {
      "getRoleAdmin(bytes32)": {
        "details": "Returns the admin role that controls `role`. See {grantRole} and {revokeRole}. To change a role's admin, use {_setRoleAdmin}."
      },
      "grantRole(bytes32,address)": {
        "details": "Grants `role` to `account`. If `account` had not been already granted `role`, emits a {RoleGranted} event. Requirements: - the caller must have ``role``'s admin role."
      },
      "hasRole(bytes32,address)": {
        "details": "Returns `true` if `account` has been granted `role`."
      },
      "renounceRole(bytes32,address)": {
        "details": "Revokes `role` from the calling account. Roles are often managed via {grantRole} and {revokeRole}: this function's purpose is to provide a mechanism for accounts to lose their privileges if they are compromised (such as when a trusted device is misplaced). If the calling account had been granted `role`, emits a {RoleRevoked} event. Requirements: - the caller must be `account`."
      },
      "revokeRole(bytes32,address)": {
        "details": "Revokes `role` from `account`. If `account` had been granted `role`, emits a {RoleRevoked} event. Requirements: - the caller must have ``role``'s admin role."
      },
      "supportsInterface(bytes4)": {
        "details": "See {IERC165-supportsInterface}."
      }
    },
    "version": 1
  },
  "userdoc": {
    "kind": "user",
    "methods": {},
    "version": 1
  }
}