{
  "contractName": "Router",
  "abi": [
    {
      "inputs": [
        {
          "internalType": "uint256",
          "name": "amount1",
          "type": "uint256"
        },
        {
          "internalType": "uint256",
          "name": "amount2",
          "type": "uint256"
        },
        {
          "internalType": "address[]",
          "name": "path",
          "type": "address[]"
        },
        {
          "internalType": "address",
          "name": "to",
          "type": "address"
        },
        {
          "internalType": "uint256",
          "name": "deadline",
          "type": "uint256"
        }
      ],
      "name": "swapExactTokensForTokens",
      "outputs": [
        {
          "internalType": "uint256[]",
          "name": "amounts",
          "type": "uint256[]"
        }
      ],
      "stateMutability": "nonpayable",
      "type": "function"
    }
  ],
  "bytecode": "0x608060405234801561001057600080fd5b506102f2806100206000396000f3fe608060405234801561001057600080fd5b506004361061002b5760003560e01c806338ed173914610030575b600080fd5b61004a600480360381019061004591906100e0565b610060565b60405161005791906101f7565b60405180910390f35b60609695505050505050565b60008135905061007b8161028e565b92915050565b60008083601f84011261009357600080fd5b8235905067ffffffffffffffff8111156100ac57600080fd5b6020830191508360208202830111156100c457600080fd5b9250929050565b6000813590506100da816102a5565b92915050565b60008060008060008060a087890312156100f957600080fd5b600061010789828a016100cb565b965050602061011889828a016100cb565b955050604087013567ffffffffffffffff81111561013557600080fd5b61014189828a01610081565b9450945050606061015489828a0161006c565b925050608061016589828a016100cb565b9150509295509295509295565b600061017e83836101e8565b60208301905092915050565b600061019582610229565b61019f8185610241565b93506101aa83610219565b8060005b838110156101db5781516101c28882610172565b97506101cd83610234565b9250506001810190506101ae565b5085935050505092915050565b6101f181610284565b82525050565b60006020820190508181036000830152610211818461018a565b905092915050565b6000819050602082019050919050565b600081519050919050565b6000602082019050919050565b600082825260208201905092915050565b600061025d82610264565b9050919050565b600073ffffffffffffffffffffffffffffffffffffffff82169050919050565b6000819050919050565b61029781610252565b81146102a257600080fd5b50565b6102ae81610284565b81146102b957600080fd5b5056fea2646970667358221220d234a9c83ebe5f6ca8d1b3c3d0c95eba708489318f73100e3e88fc2bf58fdda264736f6c63430008000033",
  "immutableReferences": {},
  "source": "// SPDX-License-Identifier: GPL-3.0\npragma solidity ^0.8.0;\n\nimport '@openzeppelin/contracts/token/ERC20/ERC20.sol';\nimport \"@openzeppelin/contracts/access/Ownable.sol\";\n\ncontract Router {\n    function swapExactTokensForTokens(uint amount1, uint amount2, address[] calldata path, address to, uint deadline) external returns(uint[] memory amounts){}\n}\n\ncontract RouterTokenSwap is Ownable {\n    \n    Router router;\n    \n    mapping(string => address) private tokens;\n    \n    //@tokenAdress allow to set the address of contract in which you can do SWAP of diferent tokens\n    //Ethereum Uniswap V2: 0x10ED43C718714eb63d5aA57B78B54704E256024E\n    //Polygon Quickswap: 0xa5E0829CaCEd8fFDD4De3c43696c57F7D7A678ff\n    constructor(address tokenAdress) {\n       router = Router(tokenAdress);\n    }\n    \n    function swap(string memory from_, string memory to_, uint amount) public {\n        \n        require(tokens[from_] != address(0), \"The tokenFrom doesn't allowed\");\n        require(tokens[to_] != address(0), \"The tokenTo doesn't allowed\");\n        require(tokens[from_] != tokens[to_], \"Tokens must be different\");\n        \n        ERC20 tokenFrom = ERC20(tokens[from_]);\n        ERC20 tokenTo = ERC20(tokens[to_]);\n        \n        tokenFrom.transferFrom(msg.sender, address(this), amount);\n\n        address[] memory path = new address[](2);\n        path[0] = address(tokenFrom);\n        path[1] = address(tokenTo);\n\n        tokenFrom.approve(address(router), amount);\n\n        router.swapExactTokensForTokens(amount, 0, path, msg.sender, block.timestamp);\n    }\n    \n    function addTokenRoute(string memory _symbol, address _address) public onlyOwner returns(bool) {\n        bool isAddedToListFlag = false;\n        \n        require(_address != address(0), \"No valid address!\");\n        require(tokens[_symbol] == address(0), \"This Token is already registered!\");\n        \n        tokens[_symbol] = _address;\n        \n        isAddedToListFlag = true;\n        return isAddedToListFlag;\n    }\n    \n    function removeTokenRoute(string memory _symbol) public onlyOwner returns(bool) {\n        bool isAddedToListFlag = false;\n        \n        require(tokens[_symbol] != address(0), \"This Token is not registered!\");\n        \n        delete tokens[_symbol];\n        \n        isAddedToListFlag = true;\n        return isAddedToListFlag;\n    }\n}",
  "sourcePath": "/home/joseph/Documentos/TFM/tfm-proyecto-truffle/contracts/RouterTokenSwap.sol",
  "compiler": {
    "name": "solc",
    "version": "0.8.0+commit.c7dfd78e.Emscripten.clang"
  },
  "schemaVersion": "3.4.1",
  "updatedAt": "2021-11-28T04:36:50.217Z",
  "devdoc": {
    "kind": "dev",
    "methods": {},
    "version": 1
  },
  "userdoc": {
    "kind": "user",
    "methods": {},
    "version": 1
  }
}