{
  "contractName": "RouterTokenSwap",
  "abi": [
    {
      "inputs": [
        {
          "internalType": "address",
          "name": "tokenAdress",
          "type": "address"
        }
      ],
      "stateMutability": "nonpayable",
      "type": "constructor"
    },
    {
      "anonymous": false,
      "inputs": [
        {
          "indexed": true,
          "internalType": "address",
          "name": "previousOwner",
          "type": "address"
        },
        {
          "indexed": true,
          "internalType": "address",
          "name": "newOwner",
          "type": "address"
        }
      ],
      "name": "OwnershipTransferred",
      "type": "event"
    },
    {
      "inputs": [],
      "name": "owner",
      "outputs": [
        {
          "internalType": "address",
          "name": "",
          "type": "address"
        }
      ],
      "stateMutability": "view",
      "type": "function",
      "constant": true
    },
    {
      "inputs": [],
      "name": "renounceOwnership",
      "outputs": [],
      "stateMutability": "nonpayable",
      "type": "function"
    },
    {
      "inputs": [
        {
          "internalType": "address",
          "name": "newOwner",
          "type": "address"
        }
      ],
      "name": "transferOwnership",
      "outputs": [],
      "stateMutability": "nonpayable",
      "type": "function"
    },
    {
      "inputs": [
        {
          "internalType": "string",
          "name": "from_",
          "type": "string"
        },
        {
          "internalType": "string",
          "name": "to_",
          "type": "string"
        },
        {
          "internalType": "uint256",
          "name": "amount",
          "type": "uint256"
        }
      ],
      "name": "swap",
      "outputs": [],
      "stateMutability": "nonpayable",
      "type": "function"
    },
    {
      "inputs": [
        {
          "internalType": "string",
          "name": "_symbol",
          "type": "string"
        },
        {
          "internalType": "address",
          "name": "_address",
          "type": "address"
        }
      ],
      "name": "addTokenRoute",
      "outputs": [
        {
          "internalType": "bool",
          "name": "",
          "type": "bool"
        }
      ],
      "stateMutability": "nonpayable",
      "type": "function"
    },
    {
      "inputs": [
        {
          "internalType": "string",
          "name": "_symbol",
          "type": "string"
        }
      ],
      "name": "removeTokenRoute",
      "outputs": [
        {
          "internalType": "bool",
          "name": "",
          "type": "bool"
        }
      ],
      "stateMutability": "nonpayable",
      "type": "function"
    }
  ],
  "bytecode": "0x60806040523480156200001157600080fd5b50604051620019ca380380620019ca833981810160405281019062000037919062000182565b620000576200004b6200009f60201b60201c565b620000a760201b60201c565b80600160006101000a81548173ffffffffffffffffffffffffffffffffffffffff021916908373ffffffffffffffffffffffffffffffffffffffff16021790555050620001fc565b600033905090565b60008060009054906101000a900473ffffffffffffffffffffffffffffffffffffffff169050816000806101000a81548173ffffffffffffffffffffffffffffffffffffffff021916908373ffffffffffffffffffffffffffffffffffffffff1602179055508173ffffffffffffffffffffffffffffffffffffffff168173ffffffffffffffffffffffffffffffffffffffff167f8be0079c531659141344cd1fd0a4f28419497f9722a3daafe3b4186f6b6457e060405160405180910390a35050565b6000815190506200017c81620001e2565b92915050565b6000602082840312156200019557600080fd5b6000620001a5848285016200016b565b91505092915050565b6000620001bb82620001c2565b9050919050565b600073ffffffffffffffffffffffffffffffffffffffff82169050919050565b620001ed81620001ae565b8114620001f957600080fd5b50565b6117be806200020c6000396000f3fe608060405234801561001057600080fd5b50600436106100625760003560e01c80632412779614610067578063715018a6146100975780638da5cb5b146100a1578063a451f602146100bf578063a8c7476e146100db578063f2fde38b1461010b575b600080fd5b610081600480360381019061007c9190610f32565b610127565b60405161008e9190611416565b60405180910390f35b61009f6102a2565b005b6100a961032a565b6040516100b6919061139b565b60405180910390f35b6100d960048036038101906100d49190610fc7565b610353565b005b6100f560048036038101906100f09190610f73565b610982565b6040516101029190611416565b60405180910390f35b61012560048036038101906101209190610e9f565b610b89565b005b6000610131610c81565b73ffffffffffffffffffffffffffffffffffffffff1661014f61032a565b73ffffffffffffffffffffffffffffffffffffffff16146101a5576040517f08c379a000000000000000000000000000000000000000000000000000000000815260040161019c906114d1565b60405180910390fd5b60008073ffffffffffffffffffffffffffffffffffffffff166002846040516101ce9190611384565b908152602001604051809103902060009054906101000a900473ffffffffffffffffffffffffffffffffffffffff1673ffffffffffffffffffffffffffffffffffffffff161415610254576040517f08c379a000000000000000000000000000000000000000000000000000000000815260040161024b90611431565b60405180910390fd5b6002836040516102649190611384565b908152602001604051809103902060006101000a81549073ffffffffffffffffffffffffffffffffffffffff02191690556001905080915050919050565b6102aa610c81565b73ffffffffffffffffffffffffffffffffffffffff166102c861032a565b73ffffffffffffffffffffffffffffffffffffffff161461031e576040517f08c379a0000000000000000000000000000000000000000000000000000000008152600401610315906114d1565b60405180910390fd5b6103286000610c89565b565b60008060009054906101000a900473ffffffffffffffffffffffffffffffffffffffff16905090565b600073ffffffffffffffffffffffffffffffffffffffff1660028460405161037b9190611384565b908152602001604051809103902060009054906101000a900473ffffffffffffffffffffffffffffffffffffffff1673ffffffffffffffffffffffffffffffffffffffff161415610401576040517f08c379a00000000000000000000000000000000000000000000000000000000081526004016103f890611451565b60405180910390fd5b600073ffffffffffffffffffffffffffffffffffffffff166002836040516104299190611384565b908152602001604051809103902060009054906101000a900473ffffffffffffffffffffffffffffffffffffffff1673ffffffffffffffffffffffffffffffffffffffff1614156104af576040517f08c379a00000000000000000000000000000000000000000000000000000000081526004016104a690611511565b60405180910390fd5b6002826040516104bf9190611384565b908152602001604051809103902060009054906101000a900473ffffffffffffffffffffffffffffffffffffffff1673ffffffffffffffffffffffffffffffffffffffff166002846040516105149190611384565b908152602001604051809103902060009054906101000a900473ffffffffffffffffffffffffffffffffffffffff1673ffffffffffffffffffffffffffffffffffffffff16141561059a576040517f08c379a0000000000000000000000000000000000000000000000000000000008152600401610591906114b1565b60405180910390fd5b60006002846040516105ac9190611384565b908152602001604051809103902060009054906101000a900473ffffffffffffffffffffffffffffffffffffffff16905060006002846040516105ef9190611384565b908152602001604051809103902060009054906101000a900473ffffffffffffffffffffffffffffffffffffffff1690508173ffffffffffffffffffffffffffffffffffffffff166323b872dd3330866040518463ffffffff1660e01b815260040161065d939291906113b6565b602060405180830381600087803b15801561067757600080fd5b505af115801561068b573d6000803e3d6000fd5b505050506040513d601f19601f820116820180604052508101906106af9190610f09565b506000600267ffffffffffffffff8111156106f3577f4e487b7100000000000000000000000000000000000000000000000000000000600052604160045260246000fd5b6040519080825280602002602001820160405280156107215781602001602082028036833780820191505090505b509050828160008151811061075f577f4e487b7100000000000000000000000000000000000000000000000000000000600052603260045260246000fd5b602002602001019073ffffffffffffffffffffffffffffffffffffffff16908173ffffffffffffffffffffffffffffffffffffffff168152505081816001815181106107d4577f4e487b7100000000000000000000000000000000000000000000000000000000600052603260045260246000fd5b602002602001019073ffffffffffffffffffffffffffffffffffffffff16908173ffffffffffffffffffffffffffffffffffffffff16815250508273ffffffffffffffffffffffffffffffffffffffff1663095ea7b3600160009054906101000a900473ffffffffffffffffffffffffffffffffffffffff16866040518363ffffffff1660e01b815260040161086b9291906113ed565b602060405180830381600087803b15801561088557600080fd5b505af1158015610899573d6000803e3d6000fd5b505050506040513d601f19601f820116820180604052508101906108bd9190610f09565b50600160009054906101000a900473ffffffffffffffffffffffffffffffffffffffff1673ffffffffffffffffffffffffffffffffffffffff166338ed17398560008433426040518663ffffffff1660e01b8152600401610922959493929190611531565b600060405180830381600087803b15801561093c57600080fd5b505af1158015610950573d6000803e3d6000fd5b505050506040513d6000823e3d601f19601f820116820180604052508101906109799190610ec8565b50505050505050565b600061098c610c81565b73ffffffffffffffffffffffffffffffffffffffff166109aa61032a565b73ffffffffffffffffffffffffffffffffffffffff1614610a00576040517f08c379a00000000000000000000000000000000000000000000000000000000081526004016109f7906114d1565b60405180910390fd5b60008073ffffffffffffffffffffffffffffffffffffffff168373ffffffffffffffffffffffffffffffffffffffff161415610a71576040517f08c379a0000000000000000000000000000000000000000000000000000000008152600401610a6890611491565b60405180910390fd5b600073ffffffffffffffffffffffffffffffffffffffff16600285604051610a999190611384565b908152602001604051809103902060009054906101000a900473ffffffffffffffffffffffffffffffffffffffff1673ffffffffffffffffffffffffffffffffffffffff1614610b1e576040517f08c379a0000000000000000000000000000000000000000000000000000000008152600401610b15906114f1565b60405180910390fd5b82600285604051610b2f9190611384565b908152602001604051809103902060006101000a81548173ffffffffffffffffffffffffffffffffffffffff021916908373ffffffffffffffffffffffffffffffffffffffff160217905550600190508091505092915050565b610b91610c81565b73ffffffffffffffffffffffffffffffffffffffff16610baf61032a565b73ffffffffffffffffffffffffffffffffffffffff1614610c05576040517f08c379a0000000000000000000000000000000000000000000000000000000008152600401610bfc906114d1565b60405180910390fd5b600073ffffffffffffffffffffffffffffffffffffffff168173ffffffffffffffffffffffffffffffffffffffff161415610c75576040517f08c379a0000000000000000000000000000000000000000000000000000000008152600401610c6c90611471565b60405180910390fd5b610c7e81610c89565b50565b600033905090565b60008060009054906101000a900473ffffffffffffffffffffffffffffffffffffffff169050816000806101000a81548173ffffffffffffffffffffffffffffffffffffffff021916908373ffffffffffffffffffffffffffffffffffffffff1602179055508173ffffffffffffffffffffffffffffffffffffffff168173ffffffffffffffffffffffffffffffffffffffff167f8be0079c531659141344cd1fd0a4f28419497f9722a3daafe3b4186f6b6457e060405160405180910390a35050565b6000610d60610d5b846115bc565b61158b565b90508083825260208201905082856020860282011115610d7f57600080fd5b60005b85811015610daf5781610d958882610e8a565b845260208401935060208301925050600181019050610d82565b5050509392505050565b6000610dcc610dc7846115e8565b61158b565b905082815260208101848484011115610de457600080fd5b610def8482856116d2565b509392505050565b600081359050610e0681611743565b92915050565b600082601f830112610e1d57600080fd5b8151610e2d848260208601610d4d565b91505092915050565b600081519050610e458161175a565b92915050565b600082601f830112610e5c57600080fd5b8135610e6c848260208601610db9565b91505092915050565b600081359050610e8481611771565b92915050565b600081519050610e9981611771565b92915050565b600060208284031215610eb157600080fd5b6000610ebf84828501610df7565b91505092915050565b600060208284031215610eda57600080fd5b600082015167ffffffffffffffff811115610ef457600080fd5b610f0084828501610e0c565b91505092915050565b600060208284031215610f1b57600080fd5b6000610f2984828501610e36565b91505092915050565b600060208284031215610f4457600080fd5b600082013567ffffffffffffffff811115610f5e57600080fd5b610f6a84828501610e4b565b91505092915050565b60008060408385031215610f8657600080fd5b600083013567ffffffffffffffff811115610fa057600080fd5b610fac85828601610e4b565b9250506020610fbd85828601610df7565b9150509250929050565b600080600060608486031215610fdc57600080fd5b600084013567ffffffffffffffff811115610ff657600080fd5b61100286828701610e4b565b935050602084013567ffffffffffffffff81111561101f57600080fd5b61102b86828701610e4b565b925050604061103c86828701610e75565b9150509250925092565b6000611052838361105e565b60208301905092915050565b61106781611678565b82525050565b61107681611678565b82525050565b600061108782611628565b611091818561164b565b935061109c83611618565b8060005b838110156110cd5781516110b48882611046565b97506110bf8361163e565b9250506001810190506110a0565b5085935050505092915050565b6110e38161168a565b82525050565b6110f2816116c0565b82525050565b600061110382611633565b61110d818561166d565b935061111d8185602086016116e1565b80840191505092915050565b6000611136601d8361165c565b91507f5468697320546f6b656e206973206e6f742072656769737465726564210000006000830152602082019050919050565b6000611176601d8361165c565b91507f54686520746f6b656e46726f6d20646f65736e277420616c6c6f7765640000006000830152602082019050919050565b60006111b660268361165c565b91507f4f776e61626c653a206e6577206f776e657220697320746865207a65726f206160008301527f64647265737300000000000000000000000000000000000000000000000000006020830152604082019050919050565b600061121c60118361165c565b91507f4e6f2076616c69642061646472657373210000000000000000000000000000006000830152602082019050919050565b600061125c60188361165c565b91507f546f6b656e73206d75737420626520646966666572656e7400000000000000006000830152602082019050919050565b600061129c60208361165c565b91507f4f776e61626c653a2063616c6c6572206973206e6f7420746865206f776e65726000830152602082019050919050565b60006112dc60218361165c565b91507f5468697320546f6b656e20697320616c7265616479207265676973746572656460008301527f21000000000000000000000000000000000000000000000000000000000000006020830152604082019050919050565b6000611342601b8361165c565b91507f54686520746f6b656e546f20646f65736e277420616c6c6f77656400000000006000830152602082019050919050565b61137e816116b6565b82525050565b600061139082846110f8565b915081905092915050565b60006020820190506113b0600083018461106d565b92915050565b60006060820190506113cb600083018661106d565b6113d8602083018561106d565b6113e56040830184611375565b949350505050565b6000604082019050611402600083018561106d565b61140f6020830184611375565b9392505050565b600060208201905061142b60008301846110da565b92915050565b6000602082019050818103600083015261144a81611129565b9050919050565b6000602082019050818103600083015261146a81611169565b9050919050565b6000602082019050818103600083015261148a816111a9565b9050919050565b600060208201905081810360008301526114aa8161120f565b9050919050565b600060208201905081810360008301526114ca8161124f565b9050919050565b600060208201905081810360008301526114ea8161128f565b9050919050565b6000602082019050818103600083015261150a816112cf565b9050919050565b6000602082019050818103600083015261152a81611335565b9050919050565b600060a0820190506115466000830188611375565b61155360208301876110e9565b8181036040830152611565818661107c565b9050611574606083018561106d565b6115816080830184611375565b9695505050505050565b6000604051905081810181811067ffffffffffffffff821117156115b2576115b1611714565b5b8060405250919050565b600067ffffffffffffffff8211156115d7576115d6611714565b5b602082029050602081019050919050565b600067ffffffffffffffff82111561160357611602611714565b5b601f19601f8301169050602081019050919050565b6000819050602082019050919050565b600081519050919050565b600081519050919050565b6000602082019050919050565b600082825260208201905092915050565b600082825260208201905092915050565b600081905092915050565b600061168382611696565b9050919050565b60008115159050919050565b600073ffffffffffffffffffffffffffffffffffffffff82169050919050565b6000819050919050565b60006116cb826116b6565b9050919050565b82818337600083830152505050565b60005b838110156116ff5780820151818401526020810190506116e4565b8381111561170e576000848401525b50505050565b7f4e487b7100000000000000000000000000000000000000000000000000000000600052604160045260246000fd5b61174c81611678565b811461175757600080fd5b50565b6117638161168a565b811461176e57600080fd5b50565b61177a816116b6565b811461178557600080fd5b5056fea2646970667358221220b2c6bbf85c1a84b091ebacb550427a3c369a3b3f229289b86139d722d3a96c6564736f6c63430008000033",
  "immutableReferences": {},
  "source": "// SPDX-License-Identifier: GPL-3.0\npragma solidity ^0.8.0;\n\nimport '@openzeppelin/contracts/token/ERC20/ERC20.sol';\nimport \"@openzeppelin/contracts/access/Ownable.sol\";\n\ncontract Router {\n    function swapExactTokensForTokens(uint amount1, uint amount2, address[] calldata path, address to, uint deadline) external returns(uint[] memory amounts){}\n}\n\ncontract RouterTokenSwap is Ownable {\n    \n    Router router;\n    \n    mapping(string => address) private tokens;\n    \n    //@tokenAdress allow to set the address of contract in which you can do SWAP of diferent tokens\n    //Ethereum Uniswap V2: 0x10ED43C718714eb63d5aA57B78B54704E256024E\n    //Polygon Quickswap: 0xa5E0829CaCEd8fFDD4De3c43696c57F7D7A678ff\n    constructor(address tokenAdress) {\n       router = Router(tokenAdress);\n    }\n    \n    function swap(string memory from_, string memory to_, uint amount) public {\n        \n        require(tokens[from_] != address(0), \"The tokenFrom doesn't allowed\");\n        require(tokens[to_] != address(0), \"The tokenTo doesn't allowed\");\n        require(tokens[from_] != tokens[to_], \"Tokens must be different\");\n        \n        ERC20 tokenFrom = ERC20(tokens[from_]);\n        ERC20 tokenTo = ERC20(tokens[to_]);\n        \n        tokenFrom.transferFrom(msg.sender, address(this), amount);\n\n        address[] memory path = new address[](2);\n        path[0] = address(tokenFrom);\n        path[1] = address(tokenTo);\n\n        tokenFrom.approve(address(router), amount);\n\n        router.swapExactTokensForTokens(amount, 0, path, msg.sender, block.timestamp);\n    }\n    \n    function addTokenRoute(string memory _symbol, address _address) public onlyOwner returns(bool) {\n        bool isAddedToListFlag = false;\n        \n        require(_address != address(0), \"No valid address!\");\n        require(tokens[_symbol] == address(0), \"This Token is already registered!\");\n        \n        tokens[_symbol] = _address;\n        \n        isAddedToListFlag = true;\n        return isAddedToListFlag;\n    }\n    \n    function removeTokenRoute(string memory _symbol) public onlyOwner returns(bool) {\n        bool isAddedToListFlag = false;\n        \n        require(tokens[_symbol] != address(0), \"This Token is not registered!\");\n        \n        delete tokens[_symbol];\n        \n        isAddedToListFlag = true;\n        return isAddedToListFlag;\n    }\n}",
  "sourcePath": "/home/joseph/Documentos/TFM/tfm-proyecto-truffle/contracts/RouterTokenSwap.sol",
  "compiler": {
    "name": "solc",
    "version": "0.8.0+commit.c7dfd78e.Emscripten.clang"
  },
  "schemaVersion": "3.4.1",
  "updatedAt": "2021-11-28T04:36:56.787Z",
  "networkType": "ethereum",
  "devdoc": {
    "kind": "dev",
    "methods": {
      "owner()": {
        "details": "Returns the address of the current owner."
      },
      "renounceOwnership()": {
        "details": "Leaves the contract without owner. It will not be possible to call `onlyOwner` functions anymore. Can only be called by the current owner. NOTE: Renouncing ownership will leave the contract without an owner, thereby removing any functionality that is only available to the owner."
      },
      "transferOwnership(address)": {
        "details": "Transfers ownership of the contract to a new account (`newOwner`). Can only be called by the current owner."
      }
    },
    "version": 1
  },
  "userdoc": {
    "kind": "user",
    "methods": {},
    "version": 1
  }
}