{
  "contractName": "DataFeedPrice",
  "abi": [
    {
      "inputs": [],
      "stateMutability": "nonpayable",
      "type": "constructor"
    },
    {
      "anonymous": false,
      "inputs": [
        {
          "indexed": false,
          "internalType": "address",
          "name": "newOracle",
          "type": "address"
        }
      ],
      "name": "OracleChanged",
      "type": "event"
    },
    {
      "anonymous": false,
      "inputs": [
        {
          "indexed": true,
          "internalType": "address",
          "name": "previousOwner",
          "type": "address"
        },
        {
          "indexed": true,
          "internalType": "address",
          "name": "newOwner",
          "type": "address"
        }
      ],
      "name": "OwnershipTransferred",
      "type": "event"
    },
    {
      "inputs": [],
      "name": "owner",
      "outputs": [
        {
          "internalType": "address",
          "name": "",
          "type": "address"
        }
      ],
      "stateMutability": "view",
      "type": "function"
    },
    {
      "inputs": [],
      "name": "renounceOwnership",
      "outputs": [],
      "stateMutability": "nonpayable",
      "type": "function"
    },
    {
      "inputs": [],
      "name": "stakePriceOracle",
      "outputs": [
        {
          "internalType": "address",
          "name": "",
          "type": "address"
        }
      ],
      "stateMutability": "view",
      "type": "function"
    },
    {
      "inputs": [
        {
          "internalType": "address",
          "name": "newOwner",
          "type": "address"
        }
      ],
      "name": "transferOwnership",
      "outputs": [],
      "stateMutability": "nonpayable",
      "type": "function"
    },
    {
      "inputs": [
        {
          "internalType": "address",
          "name": "_oracle",
          "type": "address"
        }
      ],
      "name": "setOracle",
      "outputs": [],
      "stateMutability": "nonpayable",
      "type": "function"
    },
    {
      "inputs": [
        {
          "internalType": "uint8",
          "name": "_decimals",
          "type": "uint8"
        }
      ],
      "name": "getPriceETHtoUSD",
      "outputs": [
        {
          "internalType": "int256",
          "name": "",
          "type": "int256"
        }
      ],
      "stateMutability": "view",
      "type": "function"
    },
    {
      "inputs": [
        {
          "internalType": "address",
          "name": "_base",
          "type": "address"
        },
        {
          "internalType": "address",
          "name": "_quote",
          "type": "address"
        },
        {
          "internalType": "uint8",
          "name": "_decimals",
          "type": "uint8"
        }
      ],
      "name": "getDerivedPrice",
      "outputs": [
        {
          "internalType": "int256",
          "name": "",
          "type": "int256"
        }
      ],
      "stateMutability": "view",
      "type": "function"
    }
  ],
  "bytecode": "0x608060405234801561001057600080fd5b5061002d61002261008760201b60201c565b61008f60201b60201c565b738a753747a1fa494ec906ce90e9f37563a8af630e600160006101000a81548173ffffffffffffffffffffffffffffffffffffffff021916908373ffffffffffffffffffffffffffffffffffffffff160217905550610153565b600033905090565b60008060009054906101000a900473ffffffffffffffffffffffffffffffffffffffff169050816000806101000a81548173ffffffffffffffffffffffffffffffffffffffff021916908373ffffffffffffffffffffffffffffffffffffffff1602179055508173ffffffffffffffffffffffffffffffffffffffff168173ffffffffffffffffffffffffffffffffffffffff167f8be0079c531659141344cd1fd0a4f28419497f9722a3daafe3b4186f6b6457e060405160405180910390a35050565b611161806101626000396000f3fe608060405234801561001057600080fd5b506004361061007d5760003560e01c80638da5cb5b1161005b5780638da5cb5b146100d857806397436655146100f6578063e515e80314610126578063f2fde38b146101445761007d565b8063715018a6146100825780637adbf9731461008c5780637ea0c4a4146100a8575b600080fd5b61008a610160565b005b6100a660048036038101906100a191906109d2565b6101e8565b005b6100c260048036038101906100bd9190610a4a565b6102df565b6040516100cf9190610c32565b60405180910390f35b6100e06103fe565b6040516100ed9190610c17565b60405180910390f35b610110600480360381019061010b91906109fb565b610427565b60405161011d9190610c32565b60405180910390f35b61012e6106e7565b60405161013b9190610c17565b60405180910390f35b61015e600480360381019061015991906109d2565b61070d565b005b610168610805565b73ffffffffffffffffffffffffffffffffffffffff166101866103fe565b73ffffffffffffffffffffffffffffffffffffffff16146101dc576040517f08c379a00000000000000000000000000000000000000000000000000000000081526004016101d390610c8d565b60405180910390fd5b6101e6600061080d565b565b6101f0610805565b73ffffffffffffffffffffffffffffffffffffffff1661020e6103fe565b73ffffffffffffffffffffffffffffffffffffffff1614610264576040517f08c379a000000000000000000000000000000000000000000000000000000000815260040161025b90610c8d565b60405180910390fd5b80600160006101000a81548173ffffffffffffffffffffffffffffffffffffffff021916908373ffffffffffffffffffffffffffffffffffffffff1602179055507f0e05ae75e8b926552cf6fcd744d19f422561e3ced1e426868730852702dbe418816040516102d49190610c17565b60405180910390a150565b60008060ff168260ff161180156102fd5750601260ff168260ff1611155b61033c576040517f08c379a000000000000000000000000000000000000000000000000000000000815260040161033390610c6d565b60405180910390fd5b6000600160009054906101000a900473ffffffffffffffffffffffffffffffffffffffff1673ffffffffffffffffffffffffffffffffffffffff1663feaf968c6040518163ffffffff1660e01b815260040160a06040518083038186803b1580156103a657600080fd5b505afa1580156103ba573d6000803e3d6000fd5b505050506040513d601f19601f820116820180604052508101906103de9190610a73565b50505091505060006103f2826008866108d1565b90508092505050919050565b60008060009054906101000a900473ffffffffffffffffffffffffffffffffffffffff16905090565b60008060ff168260ff161180156104455750601260ff168260ff1611155b610484576040517f08c379a000000000000000000000000000000000000000000000000000000000815260040161047b90610c6d565b60405180910390fd5b60008260ff16600a6104969190610d7b565b905060008573ffffffffffffffffffffffffffffffffffffffff1663feaf968c6040518163ffffffff1660e01b815260040160a06040518083038186803b1580156104e057600080fd5b505afa1580156104f4573d6000803e3d6000fd5b505050506040513d601f19601f820116820180604052508101906105189190610a73565b50505091505060008673ffffffffffffffffffffffffffffffffffffffff1663313ce5676040518163ffffffff1660e01b815260040160206040518083038186803b15801561056657600080fd5b505afa15801561057a573d6000803e3d6000fd5b505050506040513d601f19601f8201168201806040525081019061059e9190610aea565b90506105ab8282876108d1565b915060008673ffffffffffffffffffffffffffffffffffffffff1663feaf968c6040518163ffffffff1660e01b815260040160a06040518083038186803b1580156105f557600080fd5b505afa158015610609573d6000803e3d6000fd5b505050506040513d601f19601f8201168201806040525081019061062d9190610a73565b50505091505060008773ffffffffffffffffffffffffffffffffffffffff1663313ce5676040518163ffffffff1660e01b815260040160206040518083038186803b15801561067b57600080fd5b505afa15801561068f573d6000803e3d6000fd5b505050506040513d601f19601f820116820180604052508101906106b39190610aea565b90506106c08282896108d1565b91508185856106cf9190610e99565b6106d99190610cbe565b955050505050509392505050565b600260009054906101000a900473ffffffffffffffffffffffffffffffffffffffff1681565b610715610805565b73ffffffffffffffffffffffffffffffffffffffff166107336103fe565b73ffffffffffffffffffffffffffffffffffffffff1614610789576040517f08c379a000000000000000000000000000000000000000000000000000000000815260040161078090610c8d565b60405180910390fd5b600073ffffffffffffffffffffffffffffffffffffffff168173ffffffffffffffffffffffffffffffffffffffff1614156107f9576040517f08c379a00000000000000000000000000000000000000000000000000000000081526004016107f090610c4d565b60405180910390fd5b6108028161080d565b50565b600033905090565b60008060009054906101000a900473ffffffffffffffffffffffffffffffffffffffff169050816000806101000a81548173ffffffffffffffffffffffffffffffffffffffff021916908373ffffffffffffffffffffffffffffffffffffffff1602179055508173ffffffffffffffffffffffffffffffffffffffff168173ffffffffffffffffffffffffffffffffffffffff167f8be0079c531659141344cd1fd0a4f28419497f9722a3daafe3b4186f6b6457e060405160405180910390a35050565b60008160ff168360ff16101561090e5782826108ed9190610fb0565b60ff16600a6108fc9190610d7b565b846109079190610e99565b905061094d565b8160ff168360ff1611156109495781836109289190610fb0565b60ff16600a6109379190610d7b565b846109429190610cbe565b905061094d565b8390505b9392505050565b600081359050610963816110b8565b92915050565b600081519050610978816110cf565b92915050565b60008151905061098d816110e6565b92915050565b6000813590506109a2816110fd565b92915050565b6000815190506109b781611114565b92915050565b6000815190506109cc816110fd565b92915050565b6000602082840312156109e457600080fd5b60006109f284828501610954565b91505092915050565b600080600060608486031215610a1057600080fd5b6000610a1e86828701610954565b9350506020610a2f86828701610954565b9250506040610a4086828701610993565b9150509250925092565b600060208284031215610a5c57600080fd5b6000610a6a84828501610993565b91505092915050565b600080600080600060a08688031215610a8b57600080fd5b6000610a99888289016109a8565b9550506020610aaa88828901610969565b9450506040610abb8882890161097e565b9350506060610acc8882890161097e565b9250506080610add888289016109a8565b9150509295509295909350565b600060208284031215610afc57600080fd5b6000610b0a848285016109bd565b91505092915050565b610b1c81610fe4565b82525050565b610b2b81610ff6565b82525050565b6000610b3e602683610cad565b91507f4f776e61626c653a206e6577206f776e657220697320746865207a65726f206160008301527f64647265737300000000000000000000000000000000000000000000000000006020830152604082019050919050565b6000610ba4601183610cad565b91507f496e76616c6964205f646563696d616c730000000000000000000000000000006000830152602082019050919050565b6000610be4602083610cad565b91507f4f776e61626c653a2063616c6c6572206973206e6f7420746865206f776e65726000830152602082019050919050565b6000602082019050610c2c6000830184610b13565b92915050565b6000602082019050610c476000830184610b22565b92915050565b60006020820190508181036000830152610c6681610b31565b9050919050565b60006020820190508181036000830152610c8681610b97565b9050919050565b60006020820190508181036000830152610ca681610bd7565b9050919050565b600082825260208201905092915050565b6000610cc982610ff6565b9150610cd483610ff6565b925082610ce457610ce361107c565b5b600160000383147f800000000000000000000000000000000000000000000000000000000000000083141615610d1d57610d1c61104d565b5b828205905092915050565b6000808291508390505b6001851115610d7257808604811115610d4e57610d4d61104d565b5b6001851615610d5d5780820291505b8081029050610d6b856110ab565b9450610d32565b94509492505050565b6000610d8682611020565b9150610d9183611020565b9250610dbe7fffffffffffffffffffffffffffffffffffffffffffffffffffffffffffffffff8484610dc6565b905092915050565b600082610dd65760019050610e92565b81610de45760009050610e92565b8160018114610dfa5760028114610e0457610e33565b6001915050610e92565b60ff841115610e1657610e1561104d565b5b8360020a915084821115610e2d57610e2c61104d565b5b50610e92565b5060208310610133831016604e8410600b8410161715610e685782820a905083811115610e6357610e6261104d565b5b610e92565b610e758484846001610d28565b92509050818404811115610e8c57610e8b61104d565b5b81810290505b9392505050565b6000610ea482610ff6565b9150610eaf83610ff6565b9250827f7fffffffffffffffffffffffffffffffffffffffffffffffffffffffffffffff0482116000841360008413161615610eee57610eed61104d565b5b817f80000000000000000000000000000000000000000000000000000000000000000583126000841260008413161615610f2b57610f2a61104d565b5b827f80000000000000000000000000000000000000000000000000000000000000000582126000841360008412161615610f6857610f6761104d565b5b827f7fffffffffffffffffffffffffffffffffffffffffffffffffffffffffffffff0582126000841260008412161615610fa557610fa461104d565b5b828202905092915050565b6000610fbb8261102a565b9150610fc68361102a565b925082821015610fd957610fd861104d565b5b828203905092915050565b6000610fef82611000565b9050919050565b6000819050919050565b600073ffffffffffffffffffffffffffffffffffffffff82169050919050565b6000819050919050565b600060ff82169050919050565b600069ffffffffffffffffffff82169050919050565b7f4e487b7100000000000000000000000000000000000000000000000000000000600052601160045260246000fd5b7f4e487b7100000000000000000000000000000000000000000000000000000000600052601260045260246000fd5b60008160011c9050919050565b6110c181610fe4565b81146110cc57600080fd5b50565b6110d881610ff6565b81146110e357600080fd5b50565b6110ef81611020565b81146110fa57600080fd5b50565b6111068161102a565b811461111157600080fd5b50565b61111d81611037565b811461112857600080fd5b5056fea2646970667358221220dbb28225884d235f1209bc4ca98adb06178b4113820b86a47928917abddf3ece64736f6c63430008000033",
  "immutableReferences": {},
  "source": "// SPDX-License-Identifier: GPL-3.0\npragma solidity ^0.8.0;\n\nimport \"@chainlink/contracts/src/v0.8/interfaces/AggregatorV3Interface.sol\";\nimport \"@openzeppelin/contracts/access/Ownable.sol\";\n\ncontract DataFeedPrice is Ownable {\n\n    AggregatorV3Interface internal priceFeed;\n    address public stakePriceOracle;\n    \n    event OracleChanged(address newOracle);\n\n    constructor() {\n        priceFeed = AggregatorV3Interface(0x8A753747A1Fa494EC906cE90E9f37563A8AF630e);\n    }\n    \n    function setOracle(address _oracle) public onlyOwner {\n        priceFeed = AggregatorV3Interface(_oracle);\n        emit OracleChanged(_oracle);\n    }\n\n    function getPriceETHtoUSD(uint8 _decimals) public view returns (int256) {\n        require(_decimals > uint8(0) && _decimals <= uint8(18), \"Invalid _decimals\");\n        ( , int price , , , ) = priceFeed.latestRoundData();\n        int256 _price = scalePrice(price, 8, _decimals);\n        return _price;\n    }\n    \n    /**\n     * Network: Rinkeby\n     * Base: ETH/USD\n     * Base Address: 0x8A753747A1Fa494EC906cE90E9f37563A8AF630e\n     * Quote: EUR/USD\n     * Quote Address: 0x78F9e60608bF48a1155b4B2A5e31F32318a1d85F\n     * Decimals: 8\n     * Output: ETH/EUR\n     */\n    function getDerivedPrice(address _base, address _quote, uint8 _decimals) public view returns (int256) {\n        require(_decimals > uint8(0) && _decimals <= uint8(18), \"Invalid _decimals\");\n        int256 decimals = int256(10 ** uint256(_decimals));\n        ( , int256 basePrice, , , ) = AggregatorV3Interface(_base).latestRoundData();\n        uint8 baseDecimals = AggregatorV3Interface(_base).decimals();\n        basePrice = scalePrice(basePrice, baseDecimals, _decimals);\n\n        ( , int256 quotePrice, , , ) = AggregatorV3Interface(_quote).latestRoundData();\n        uint8 quoteDecimals = AggregatorV3Interface(_quote).decimals();\n        quotePrice = scalePrice(quotePrice, quoteDecimals, _decimals);\n\n        return basePrice * decimals / quotePrice;\n    }\n    \n    function scalePrice(int256 _price, uint8 _priceDecimals, uint8 _decimals) internal pure returns (int256) {\n        if (_priceDecimals < _decimals) {\n            return _price * int256(10 ** uint256(_decimals - _priceDecimals));\n        } else if (_priceDecimals > _decimals) {\n            return _price / int256(10 ** uint256(_priceDecimals - _decimals));\n        }\n        return _price;\n    }\n}",
  "sourcePath": "/home/joseph/Documentos/TFM/tfm-proyecto-truffle/contracts/DataFeedPrice.sol",
  "compiler": {
    "name": "solc",
    "version": "0.8.0+commit.c7dfd78e.Emscripten.clang"
  },
  "schemaVersion": "3.4.1",
  "updatedAt": "2021-11-30T04:05:39.072Z",
  "devdoc": {
    "kind": "dev",
    "methods": {
      "owner()": {
        "details": "Returns the address of the current owner."
      },
      "renounceOwnership()": {
        "details": "Leaves the contract without owner. It will not be possible to call `onlyOwner` functions anymore. Can only be called by the current owner. NOTE: Renouncing ownership will leave the contract without an owner, thereby removing any functionality that is only available to the owner."
      },
      "transferOwnership(address)": {
        "details": "Transfers ownership of the contract to a new account (`newOwner`). Can only be called by the current owner."
      }
    },
    "version": 1
  },
  "userdoc": {
    "kind": "user",
    "methods": {
      "getDerivedPrice(address,address,uint8)": {
        "notice": "Network: Rinkeby Base: ETH/USD Base Address: 0x8A753747A1Fa494EC906cE90E9f37563A8AF630e Quote: EUR/USD Quote Address: 0x78F9e60608bF48a1155b4B2A5e31F32318a1d85F Decimals: 8 Output: ETH/EUR"
      }
    },
    "version": 1
  }
}