{
  "contractName": "KYCContract",
  "abi": [
    {
      "anonymous": false,
      "inputs": [
        {
          "indexed": true,
          "internalType": "address",
          "name": "previousOwner",
          "type": "address"
        },
        {
          "indexed": true,
          "internalType": "address",
          "name": "newOwner",
          "type": "address"
        }
      ],
      "name": "OwnershipTransferred",
      "type": "event"
    },
    {
      "inputs": [],
      "name": "owner",
      "outputs": [
        {
          "internalType": "address",
          "name": "",
          "type": "address"
        }
      ],
      "stateMutability": "view",
      "type": "function"
    },
    {
      "inputs": [],
      "name": "renounceOwnership",
      "outputs": [],
      "stateMutability": "nonpayable",
      "type": "function"
    },
    {
      "inputs": [
        {
          "internalType": "address",
          "name": "newOwner",
          "type": "address"
        }
      ],
      "name": "transferOwnership",
      "outputs": [],
      "stateMutability": "nonpayable",
      "type": "function"
    },
    {
      "inputs": [
        {
          "internalType": "address",
          "name": "_addr",
          "type": "address"
        }
      ],
      "name": "setKycBankCompleted",
      "outputs": [],
      "stateMutability": "nonpayable",
      "type": "function"
    },
    {
      "inputs": [
        {
          "internalType": "address",
          "name": "_addr",
          "type": "address"
        }
      ],
      "name": "setKycBankRevoked",
      "outputs": [],
      "stateMutability": "nonpayable",
      "type": "function"
    },
    {
      "inputs": [
        {
          "internalType": "address",
          "name": "_addr",
          "type": "address"
        }
      ],
      "name": "kycBankCompleted",
      "outputs": [
        {
          "internalType": "bool",
          "name": "",
          "type": "bool"
        }
      ],
      "stateMutability": "view",
      "type": "function"
    },
    {
      "inputs": [
        {
          "internalType": "string",
          "name": "_name",
          "type": "string"
        },
        {
          "internalType": "address",
          "name": "_address",
          "type": "address"
        },
        {
          "internalType": "string",
          "name": "_identifier",
          "type": "string"
        }
      ],
      "name": "addBank",
      "outputs": [
        {
          "internalType": "bool",
          "name": "",
          "type": "bool"
        }
      ],
      "stateMutability": "nonpayable",
      "type": "function"
    },
    {
      "inputs": [
        {
          "internalType": "address",
          "name": "_address",
          "type": "address"
        }
      ],
      "name": "removeBank",
      "outputs": [
        {
          "internalType": "bool",
          "name": "",
          "type": "bool"
        }
      ],
      "stateMutability": "nonpayable",
      "type": "function"
    },
    {
      "inputs": [
        {
          "internalType": "address",
          "name": "oldAddress",
          "type": "address"
        },
        {
          "internalType": "address",
          "name": "newAddress",
          "type": "address"
        }
      ],
      "name": "updateBankAddress",
      "outputs": [
        {
          "internalType": "bool",
          "name": "",
          "type": "bool"
        }
      ],
      "stateMutability": "nonpayable",
      "type": "function"
    },
    {
      "inputs": [
        {
          "internalType": "address",
          "name": "_address",
          "type": "address"
        },
        {
          "internalType": "string",
          "name": "newName",
          "type": "string"
        },
        {
          "internalType": "string",
          "name": "newIdentifier",
          "type": "string"
        }
      ],
      "name": "updateBankInfo",
      "outputs": [
        {
          "internalType": "bool",
          "name": "",
          "type": "bool"
        }
      ],
      "stateMutability": "nonpayable",
      "type": "function"
    },
    {
      "inputs": [
        {
          "internalType": "address",
          "name": "_address",
          "type": "address"
        }
      ],
      "name": "getBankDetails",
      "outputs": [
        {
          "internalType": "string",
          "name": "bankName",
          "type": "string"
        },
        {
          "internalType": "address",
          "name": "bankAddress",
          "type": "address"
        },
        {
          "internalType": "string",
          "name": "bankIdentifier",
          "type": "string"
        },
        {
          "internalType": "uint256",
          "name": "totalCustomersRegistered",
          "type": "uint256"
        }
      ],
      "stateMutability": "view",
      "type": "function"
    },
    {
      "inputs": [
        {
          "internalType": "string",
          "name": "_addressICAP",
          "type": "string"
        },
        {
          "internalType": "address",
          "name": "_customerAddress",
          "type": "address"
        },
        {
          "internalType": "address",
          "name": "_bankAddress",
          "type": "address"
        }
      ],
      "name": "addCustomer",
      "outputs": [
        {
          "internalType": "bool",
          "name": "",
          "type": "bool"
        }
      ],
      "stateMutability": "nonpayable",
      "type": "function"
    },
    {
      "inputs": [
        {
          "internalType": "address",
          "name": "_address",
          "type": "address"
        }
      ],
      "name": "removeCustomer",
      "outputs": [
        {
          "internalType": "bool",
          "name": "",
          "type": "bool"
        }
      ],
      "stateMutability": "nonpayable",
      "type": "function"
    },
    {
      "inputs": [
        {
          "internalType": "address",
          "name": "oldAddress",
          "type": "address"
        },
        {
          "internalType": "address",
          "name": "newAddress",
          "type": "address"
        }
      ],
      "name": "updateCustomerAddress",
      "outputs": [
        {
          "internalType": "bool",
          "name": "",
          "type": "bool"
        }
      ],
      "stateMutability": "nonpayable",
      "type": "function"
    },
    {
      "inputs": [
        {
          "internalType": "address",
          "name": "_address",
          "type": "address"
        },
        {
          "internalType": "string",
          "name": "newAddressICAP",
          "type": "string"
        }
      ],
      "name": "updateCustomerICAPaddress",
      "outputs": [
        {
          "internalType": "bool",
          "name": "",
          "type": "bool"
        }
      ],
      "stateMutability": "nonpayable",
      "type": "function"
    },
    {
      "inputs": [
        {
          "internalType": "address",
          "name": "_address",
          "type": "address"
        },
        {
          "internalType": "bool",
          "name": "isAllowed",
          "type": "bool"
        }
      ],
      "name": "changeStatusCustomer",
      "outputs": [
        {
          "internalType": "bool",
          "name": "",
          "type": "bool"
        }
      ],
      "stateMutability": "nonpayable",
      "type": "function"
    },
    {
      "inputs": [
        {
          "internalType": "address",
          "name": "_address",
          "type": "address"
        },
        {
          "internalType": "address",
          "name": "newAddressBank",
          "type": "address"
        }
      ],
      "name": "updateCustomerBankRegistered",
      "outputs": [
        {
          "internalType": "bool",
          "name": "",
          "type": "bool"
        }
      ],
      "stateMutability": "nonpayable",
      "type": "function"
    },
    {
      "inputs": [
        {
          "internalType": "address",
          "name": "_address",
          "type": "address"
        }
      ],
      "name": "getCustomerDetails",
      "outputs": [
        {
          "internalType": "string",
          "name": "addressICAP",
          "type": "string"
        },
        {
          "internalType": "address",
          "name": "customerAddress",
          "type": "address"
        },
        {
          "internalType": "bool",
          "name": "isAllowed",
          "type": "bool"
        },
        {
          "components": [
            {
              "internalType": "string",
              "name": "_name",
              "type": "string"
            },
            {
              "internalType": "address",
              "name": "_address",
              "type": "address"
            },
            {
              "internalType": "string",
              "name": "_identifier",
              "type": "string"
            },
            {
              "internalType": "uint256",
              "name": "_totalCustomers",
              "type": "uint256"
            }
          ],
          "internalType": "struct KYCContract.Bank",
          "name": "bank",
          "type": "tuple"
        }
      ],
      "stateMutability": "view",
      "type": "function"
    },
    {
      "inputs": [
        {
          "internalType": "string",
          "name": "_icap",
          "type": "string"
        }
      ],
      "name": "getCustomerAddressFromICAP",
      "outputs": [
        {
          "internalType": "address",
          "name": "customerAddress",
          "type": "address"
        }
      ],
      "stateMutability": "view",
      "type": "function"
    }
  ],
  "bytecode": "0x60806040523480156200001157600080fd5b5062000032620000266200003860201b60201c565b6200004060201b60201c565b62000104565b600033905090565b60008060009054906101000a900473ffffffffffffffffffffffffffffffffffffffff169050816000806101000a81548173ffffffffffffffffffffffffffffffffffffffff021916908373ffffffffffffffffffffffffffffffffffffffff1602179055508173ffffffffffffffffffffffffffffffffffffffff168173ffffffffffffffffffffffffffffffffffffffff167f8be0079c531659141344cd1fd0a4f28419497f9722a3daafe3b4186f6b6457e060405160405180910390a35050565b615c4680620001146000396000f3fe608060405234801561001057600080fd5b50600436106101215760003560e01c80638eb06ccf116100ad578063b1608a3411610071578063b1608a341461036c578063c19d71041461039c578063ccfa8e71146103cc578063dc666548146103fc578063f2fde38b1461042c57610121565b80638eb06ccf1461027c57806390515f72146102ac5780639649650c146102dc5780639c3203601461030c5780639dcc58221461033c57610121565b80633dc7d032116100f45780633dc7d032146101d85780635c6dd2ae14610208578063715018a614610224578063896e87a51461022e5780638da5cb5b1461025e57610121565b80630c60f83d1461012657806315101e02146101595780632ce76ea21461018c57806333e05a14146101a8575b600080fd5b610140600480360381019061013b9190614b01565b610448565b6040516101509493929190615621565b60405180910390f35b610173600480360381019061016e9190614b01565b6108a4565b6040516101839493929190615674565b60405180910390f35b6101a660048036038101906101a19190614b01565b610be3565b005b6101c260048036038101906101bd9190614c75565b610cba565b6040516101cf91906155eb565b60405180910390f35b6101f260048036038101906101ed9190614b2a565b610daf565b6040516101ff9190615606565b60405180910390f35b610222600480360381019061021d9190614b01565b6113ab565b005b61022c611482565b005b61024860048036038101906102439190614b01565b61150a565b6040516102559190615606565b60405180910390f35b610266611560565b60405161027391906155eb565b60405180910390f35b61029660048036038101906102919190614b01565b611589565b6040516102a39190615606565b60405180910390f35b6102c660048036038101906102c19190614bf6565b611c81565b6040516102d39190615606565b60405180910390f35b6102f660048036038101906102f19190614b01565b6121eb565b6040516103039190615606565b60405180910390f35b61032660048036038101906103219190614ba2565b612764565b6040516103339190615606565b60405180910390f35b61035660048036038101906103519190614cb6565b612c70565b6040516103639190615606565b60405180910390f35b61038660048036038101906103819190614b2a565b61325f565b6040516103939190615606565b60405180910390f35b6103b660048036038101906103b19190614b66565b61386d565b6040516103c39190615606565b60405180910390f35b6103e660048036038101906103e19190614d1d565b613b4d565b6040516103f39190615606565b60405180910390f35b61041660048036038101906104119190614b2a565b613ee8565b6040516104239190615606565b60405180910390f35b61044660048036038101906104419190614b01565b614604565b005b6060600080610455614834565b600073ffffffffffffffffffffffffffffffffffffffff168573ffffffffffffffffffffffffffffffffffffffff1614156104c5576040517f08c379a00000000000000000000000000000000000000000000000000000000081526004016104bc90615787565b60405180910390fd5b600073ffffffffffffffffffffffffffffffffffffffff16600360008773ffffffffffffffffffffffffffffffffffffffff1673ffffffffffffffffffffffffffffffffffffffff16815260200190815260200160002060010160009054906101000a900473ffffffffffffffffffffffffffffffffffffffff1673ffffffffffffffffffffffffffffffffffffffff161415610597576040517f08c379a000000000000000000000000000000000000000000000000000000000815260040161058e90615947565b60405180910390fd5b6000600360008773ffffffffffffffffffffffffffffffffffffffff1673ffffffffffffffffffffffffffffffffffffffff1681526020019081526020016000206040518060800160405290816000820180546105f390615ac9565b80601f016020809104026020016040519081016040528092919081815260200182805461061f90615ac9565b801561066c5780601f106106415761010080835404028352916020019161066c565b820191906000526020600020905b81548152906001019060200180831161064f57829003601f168201915b505050505081526020016001820160009054906101000a900473ffffffffffffffffffffffffffffffffffffffff1673ffffffffffffffffffffffffffffffffffffffff1673ffffffffffffffffffffffffffffffffffffffff1681526020016001820160149054906101000a900460ff161515151581526020016002820160405180608001604052908160008201805461070690615ac9565b80601f016020809104026020016040519081016040528092919081815260200182805461073290615ac9565b801561077f5780601f106107545761010080835404028352916020019161077f565b820191906000526020600020905b81548152906001019060200180831161076257829003601f168201915b505050505081526020016001820160009054906101000a900473ffffffffffffffffffffffffffffffffffffffff1673ffffffffffffffffffffffffffffffffffffffff1673ffffffffffffffffffffffffffffffffffffffff1681526020016002820180546107ee90615ac9565b80601f016020809104026020016040519081016040528092919081815260200182805461081a90615ac9565b80156108675780601f1061083c57610100808354040283529160200191610867565b820191906000526020600020905b81548152906001019060200180831161084a57829003601f168201915b5050505050815260200160038201548152505081525050905080600001518160200151826040015183606001519450945094509450509193509193565b60606000606060008073ffffffffffffffffffffffffffffffffffffffff168573ffffffffffffffffffffffffffffffffffffffff16141561091b576040517f08c379a000000000000000000000000000000000000000000000000000000000815260040161091290615787565b60405180910390fd5b600073ffffffffffffffffffffffffffffffffffffffff16600160008773ffffffffffffffffffffffffffffffffffffffff1673ffffffffffffffffffffffffffffffffffffffff16815260200190815260200160002060010160009054906101000a900473ffffffffffffffffffffffffffffffffffffffff1673ffffffffffffffffffffffffffffffffffffffff1614156109ed576040517f08c379a00000000000000000000000000000000000000000000000000000000081526004016109e4906157a7565b60405180910390fd5b6000600160008773ffffffffffffffffffffffffffffffffffffffff1673ffffffffffffffffffffffffffffffffffffffff168152602001908152602001600020604051806080016040529081600082018054610a4990615ac9565b80601f0160208091040260200160405190810160405280929190818152602001828054610a7590615ac9565b8015610ac25780601f10610a9757610100808354040283529160200191610ac2565b820191906000526020600020905b815481529060010190602001808311610aa557829003601f168201915b505050505081526020016001820160009054906101000a900473ffffffffffffffffffffffffffffffffffffffff1673ffffffffffffffffffffffffffffffffffffffff1673ffffffffffffffffffffffffffffffffffffffff168152602001600282018054610b3190615ac9565b80601f0160208091040260200160405190810160405280929190818152602001828054610b5d90615ac9565b8015610baa5780601f10610b7f57610100808354040283529160200191610baa565b820191906000526020600020905b815481529060010190602001808311610b8d57829003601f168201915b50505050508152602001600382015481525050905080600001518160200151826040015183606001519450945094509450509193509193565b610beb6146fc565b73ffffffffffffffffffffffffffffffffffffffff16610c09611560565b73ffffffffffffffffffffffffffffffffffffffff1614610c5f576040517f08c379a0000000000000000000000000000000000000000000000000000000008152600401610c5690615827565b60405180910390fd5b6001600560008373ffffffffffffffffffffffffffffffffffffffff1673ffffffffffffffffffffffffffffffffffffffff16815260200190815260200160002060006101000a81548160ff02191690831515021790555050565b60008073ffffffffffffffffffffffffffffffffffffffff16600483604051610ce391906155bd565b908152602001604051809103902060009054906101000a900473ffffffffffffffffffffffffffffffffffffffff1673ffffffffffffffffffffffffffffffffffffffff161415610d69576040517f08c379a0000000000000000000000000000000000000000000000000000000008152600401610d6090615727565b60405180910390fd5b600482604051610d7991906155bd565b908152602001604051809103902060009054906101000a900473ffffffffffffffffffffffffffffffffffffffff169050919050565b6000610db96146fc565b73ffffffffffffffffffffffffffffffffffffffff16610dd7611560565b73ffffffffffffffffffffffffffffffffffffffff1614610e2d576040517f08c379a0000000000000000000000000000000000000000000000000000000008152600401610e2490615827565b60405180910390fd5b60008073ffffffffffffffffffffffffffffffffffffffff168473ffffffffffffffffffffffffffffffffffffffff161415610e9e576040517f08c379a0000000000000000000000000000000000000000000000000000000008152600401610e9590615787565b60405180910390fd5b600073ffffffffffffffffffffffffffffffffffffffff16600360008673ffffffffffffffffffffffffffffffffffffffff1673ffffffffffffffffffffffffffffffffffffffff16815260200190815260200160002060010160009054906101000a900473ffffffffffffffffffffffffffffffffffffffff1673ffffffffffffffffffffffffffffffffffffffff161415610f70576040517f08c379a0000000000000000000000000000000000000000000000000000000008152600401610f6790615947565b60405180910390fd5b6000600360008673ffffffffffffffffffffffffffffffffffffffff1673ffffffffffffffffffffffffffffffffffffffff1681526020019081526020016000209050600073ffffffffffffffffffffffffffffffffffffffff16600482600001604051610fde91906155d4565b908152602001604051809103902060009054906101000a900473ffffffffffffffffffffffffffffffffffffffff1673ffffffffffffffffffffffffffffffffffffffff161415611064576040517f08c379a000000000000000000000000000000000000000000000000000000000815260040161105b906158e7565b60405180910390fd5b600073ffffffffffffffffffffffffffffffffffffffff16600160008673ffffffffffffffffffffffffffffffffffffffff1673ffffffffffffffffffffffffffffffffffffffff16815260200190815260200160002060010160009054906101000a900473ffffffffffffffffffffffffffffffffffffffff1673ffffffffffffffffffffffffffffffffffffffff161415611136576040517f08c379a000000000000000000000000000000000000000000000000000000000815260040161112d906156c7565b60405180910390fd5b6000600160008673ffffffffffffffffffffffffffffffffffffffff1673ffffffffffffffffffffffffffffffffffffffff16815260200190815260200160002060405180608001604052908160008201805461119290615ac9565b80601f01602080910402602001604051908101604052809291908181526020018280546111be90615ac9565b801561120b5780601f106111e05761010080835404028352916020019161120b565b820191906000526020600020905b8154815290600101906020018083116111ee57829003601f168201915b505050505081526020016001820160009054906101000a900473ffffffffffffffffffffffffffffffffffffffff1673ffffffffffffffffffffffffffffffffffffffff1673ffffffffffffffffffffffffffffffffffffffff16815260200160028201805461127a90615ac9565b80601f01602080910402602001604051908101604052809291908181526020018280546112a690615ac9565b80156112f35780601f106112c8576101008083540402835291602001916112f3565b820191906000526020600020905b8154815290600101906020018083116112d657829003601f168201915b50505050508152602001600382015481525050905080826002016000820151816000019080519060200190611329929190614872565b5060208201518160010160006101000a81548173ffffffffffffffffffffffffffffffffffffffff021916908373ffffffffffffffffffffffffffffffffffffffff160217905550604082015181600201908051906020019061138d929190614872565b50606082015181600301559050506001925082935050505092915050565b6113b36146fc565b73ffffffffffffffffffffffffffffffffffffffff166113d1611560565b73ffffffffffffffffffffffffffffffffffffffff1614611427576040517f08c379a000000000000000000000000000000000000000000000000000000000815260040161141e90615827565b60405180910390fd5b6000600560008373ffffffffffffffffffffffffffffffffffffffff1673ffffffffffffffffffffffffffffffffffffffff16815260200190815260200160002060006101000a81548160ff02191690831515021790555050565b61148a6146fc565b73ffffffffffffffffffffffffffffffffffffffff166114a8611560565b73ffffffffffffffffffffffffffffffffffffffff16146114fe576040517f08c379a00000000000000000000000000000000000000000000000000000000081526004016114f590615827565b60405180910390fd5b6115086000614704565b565b6000600560008373ffffffffffffffffffffffffffffffffffffffff1673ffffffffffffffffffffffffffffffffffffffff16815260200190815260200160002060009054906101000a900460ff169050919050565b60008060009054906101000a900473ffffffffffffffffffffffffffffffffffffffff16905090565b60006115936146fc565b73ffffffffffffffffffffffffffffffffffffffff166115b1611560565b73ffffffffffffffffffffffffffffffffffffffff1614611607576040517f08c379a00000000000000000000000000000000000000000000000000000000081526004016115fe90615827565b60405180910390fd5b60008073ffffffffffffffffffffffffffffffffffffffff168373ffffffffffffffffffffffffffffffffffffffff161415611678576040517f08c379a000000000000000000000000000000000000000000000000000000000815260040161166f90615787565b60405180910390fd5b600073ffffffffffffffffffffffffffffffffffffffff16600360008573ffffffffffffffffffffffffffffffffffffffff1673ffffffffffffffffffffffffffffffffffffffff16815260200190815260200160002060010160009054906101000a900473ffffffffffffffffffffffffffffffffffffffff1673ffffffffffffffffffffffffffffffffffffffff16141561174a576040517f08c379a000000000000000000000000000000000000000000000000000000000815260040161174190615947565b60405180910390fd5b6000600360008573ffffffffffffffffffffffffffffffffffffffff1673ffffffffffffffffffffffffffffffffffffffff1681526020019081526020016000206040518060800160405290816000820180546117a690615ac9565b80601f01602080910402602001604051908101604052809291908181526020018280546117d290615ac9565b801561181f5780601f106117f45761010080835404028352916020019161181f565b820191906000526020600020905b81548152906001019060200180831161180257829003601f168201915b505050505081526020016001820160009054906101000a900473ffffffffffffffffffffffffffffffffffffffff1673ffffffffffffffffffffffffffffffffffffffff1673ffffffffffffffffffffffffffffffffffffffff1681526020016001820160149054906101000a900460ff16151515158152602001600282016040518060800160405290816000820180546118b990615ac9565b80601f01602080910402602001604051908101604052809291908181526020018280546118e590615ac9565b80156119325780601f1061190757610100808354040283529160200191611932565b820191906000526020600020905b81548152906001019060200180831161191557829003601f168201915b505050505081526020016001820160009054906101000a900473ffffffffffffffffffffffffffffffffffffffff1673ffffffffffffffffffffffffffffffffffffffff1673ffffffffffffffffffffffffffffffffffffffff1681526020016002820180546119a190615ac9565b80601f01602080910402602001604051908101604052809291908181526020018280546119cd90615ac9565b8015611a1a5780601f106119ef57610100808354040283529160200191611a1a565b820191906000526020600020905b8154815290600101906020018083116119fd57829003601f168201915b50505050508152602001600382015481525050815250509050600073ffffffffffffffffffffffffffffffffffffffff1660048260000151604051611a5f91906155bd565b908152602001604051809103902060009054906101000a900473ffffffffffffffffffffffffffffffffffffffff1673ffffffffffffffffffffffffffffffffffffffff161415611ae5576040517f08c379a0000000000000000000000000000000000000000000000000000000008152600401611adc906158e7565b60405180910390fd5b60048160000151604051611af991906155bd565b908152602001604051809103902060006101000a81549073ffffffffffffffffffffffffffffffffffffffff0219169055600360008573ffffffffffffffffffffffffffffffffffffffff1673ffffffffffffffffffffffffffffffffffffffff16815260200190815260200160002060008082016000611b7a91906148f8565b6001820160006101000a81549073ffffffffffffffffffffffffffffffffffffffff02191690556001820160146101000a81549060ff02191690556002820160008082016000611bca91906148f8565b6001820160006101000a81549073ffffffffffffffffffffffffffffffffffffffff0219169055600282016000611c0191906148f8565b60038201600090555050505060006001600083606001516020015173ffffffffffffffffffffffffffffffffffffffff1673ffffffffffffffffffffffffffffffffffffffff1681526020019081526020016000209050806003016000815480929190611c6d90615a9f565b919050555060019250829350505050919050565b6000611c8b6146fc565b73ffffffffffffffffffffffffffffffffffffffff16611ca9611560565b73ffffffffffffffffffffffffffffffffffffffff1614611cff576040517f08c379a0000000000000000000000000000000000000000000000000000000008152600401611cf690615827565b60405180910390fd5b60008073ffffffffffffffffffffffffffffffffffffffff168573ffffffffffffffffffffffffffffffffffffffff161415611d70576040517f08c379a0000000000000000000000000000000000000000000000000000000008152600401611d6790615787565b60405180910390fd5b600073ffffffffffffffffffffffffffffffffffffffff16600160008773ffffffffffffffffffffffffffffffffffffffff1673ffffffffffffffffffffffffffffffffffffffff16815260200190815260200160002060010160009054906101000a900473ffffffffffffffffffffffffffffffffffffffff1673ffffffffffffffffffffffffffffffffffffffff161415611e42576040517f08c379a0000000000000000000000000000000000000000000000000000000008152600401611e39906157a7565b60405180910390fd5b6000845111611e86576040517f08c379a0000000000000000000000000000000000000000000000000000000008152600401611e7d90615847565b60405180910390fd5b6000835111611eca576040517f08c379a0000000000000000000000000000000000000000000000000000000008152600401611ec1906158c7565b60405180910390fd5b6000600160008773ffffffffffffffffffffffffffffffffffffffff1673ffffffffffffffffffffffffffffffffffffffff1681526020019081526020016000209050600073ffffffffffffffffffffffffffffffffffffffff16600282600201604051611f3891906155d4565b908152602001604051809103902060009054906101000a900473ffffffffffffffffffffffffffffffffffffffff1673ffffffffffffffffffffffffffffffffffffffff161415611fbe576040517f08c379a0000000000000000000000000000000000000000000000000000000008152600401611fb5906157e7565b60405180910390fd5b612054816002018054611fd090615ac9565b80601f0160208091040260200160405190810160405280929190818152602001828054611ffc90615ac9565b80156120495780601f1061201e57610100808354040283529160200191612049565b820191906000526020600020905b81548152906001019060200180831161202c57829003601f168201915b5050505050856147c8565b806120c95750600073ffffffffffffffffffffffffffffffffffffffff1660028560405161208291906155bd565b908152602001604051809103902060009054906101000a900473ffffffffffffffffffffffffffffffffffffffff1673ffffffffffffffffffffffffffffffffffffffff16145b612108576040517f08c379a00000000000000000000000000000000000000000000000000000000081526004016120ff906158a7565b60405180910390fd5b84816000019080519060200190612120929190614872565b5083816002019080519060200190612139929190614872565b5060028160020160405161214d91906155d4565b908152602001604051809103902060006101000a81549073ffffffffffffffffffffffffffffffffffffffff02191690558560028560405161218f91906155bd565b908152602001604051809103902060006101000a81548173ffffffffffffffffffffffffffffffffffffffff021916908373ffffffffffffffffffffffffffffffffffffffff1602179055506001915081925050509392505050565b60006121f56146fc565b73ffffffffffffffffffffffffffffffffffffffff16612213611560565b73ffffffffffffffffffffffffffffffffffffffff1614612269576040517f08c379a000000000000000000000000000000000000000000000000000000000815260040161226090615827565b60405180910390fd5b60008073ffffffffffffffffffffffffffffffffffffffff168373ffffffffffffffffffffffffffffffffffffffff1614156122da576040517f08c379a00000000000000000000000000000000000000000000000000000000081526004016122d190615787565b60405180910390fd5b600073ffffffffffffffffffffffffffffffffffffffff16600160008573ffffffffffffffffffffffffffffffffffffffff1673ffffffffffffffffffffffffffffffffffffffff16815260200190815260200160002060010160009054906101000a900473ffffffffffffffffffffffffffffffffffffffff1673ffffffffffffffffffffffffffffffffffffffff1614156123ac576040517f08c379a00000000000000000000000000000000000000000000000000000000081526004016123a3906157a7565b60405180910390fd5b6000600160008573ffffffffffffffffffffffffffffffffffffffff1673ffffffffffffffffffffffffffffffffffffffff16815260200190815260200160002060405180608001604052908160008201805461240890615ac9565b80601f016020809104026020016040519081016040528092919081815260200182805461243490615ac9565b80156124815780601f1061245657610100808354040283529160200191612481565b820191906000526020600020905b81548152906001019060200180831161246457829003601f168201915b505050505081526020016001820160009054906101000a900473ffffffffffffffffffffffffffffffffffffffff1673ffffffffffffffffffffffffffffffffffffffff1673ffffffffffffffffffffffffffffffffffffffff1681526020016002820180546124f090615ac9565b80601f016020809104026020016040519081016040528092919081815260200182805461251c90615ac9565b80156125695780601f1061253e57610100808354040283529160200191612569565b820191906000526020600020905b81548152906001019060200180831161254c57829003601f168201915b50505050508152602001600382015481525050905060008160600151146125c5576040517f08c379a00000000000000000000000000000000000000000000000000000000081526004016125bc906157c7565b60405180910390fd5b600073ffffffffffffffffffffffffffffffffffffffff16600282604001516040516125f191906155bd565b908152602001604051809103902060009054906101000a900473ffffffffffffffffffffffffffffffffffffffff1673ffffffffffffffffffffffffffffffffffffffff161415612677576040517f08c379a000000000000000000000000000000000000000000000000000000000815260040161266e906157e7565b60405180910390fd5b6002816040015160405161268b91906155bd565b908152602001604051809103902060006101000a81549073ffffffffffffffffffffffffffffffffffffffff0219169055600160008573ffffffffffffffffffffffffffffffffffffffff1673ffffffffffffffffffffffffffffffffffffffff1681526020019081526020016000206000808201600061270c91906148f8565b6001820160006101000a81549073ffffffffffffffffffffffffffffffffffffffff021916905560028201600061274391906148f8565b60038201600090555050612756846113ab565b600191508192505050919050565b600061276e6146fc565b73ffffffffffffffffffffffffffffffffffffffff1661278c611560565b73ffffffffffffffffffffffffffffffffffffffff16146127e2576040517f08c379a00000000000000000000000000000000000000000000000000000000081526004016127d990615827565b60405180910390fd5b60008073ffffffffffffffffffffffffffffffffffffffff168473ffffffffffffffffffffffffffffffffffffffff161415612853576040517f08c379a000000000000000000000000000000000000000000000000000000000815260040161284a90615787565b60405180910390fd5b600073ffffffffffffffffffffffffffffffffffffffff16600360008673ffffffffffffffffffffffffffffffffffffffff1673ffffffffffffffffffffffffffffffffffffffff16815260200190815260200160002060010160009054906101000a900473ffffffffffffffffffffffffffffffffffffffff1673ffffffffffffffffffffffffffffffffffffffff161415612925576040517f08c379a000000000000000000000000000000000000000000000000000000000815260040161291c90615947565b60405180910390fd5b6000835111612969576040517f08c379a000000000000000000000000000000000000000000000000000000000815260040161296090615867565b60405180910390fd5b6000600360008673ffffffffffffffffffffffffffffffffffffffff1673ffffffffffffffffffffffffffffffffffffffff1681526020019081526020016000209050600073ffffffffffffffffffffffffffffffffffffffff166004826000016040516129d791906155d4565b908152602001604051809103902060009054906101000a900473ffffffffffffffffffffffffffffffffffffffff1673ffffffffffffffffffffffffffffffffffffffff161415612a5d576040517f08c379a0000000000000000000000000000000000000000000000000000000008152600401612a54906158e7565b60405180910390fd5b612af3816000018054612a6f90615ac9565b80601f0160208091040260200160405190810160405280929190818152602001828054612a9b90615ac9565b8015612ae85780601f10612abd57610100808354040283529160200191612ae8565b820191906000526020600020905b815481529060010190602001808311612acb57829003601f168201915b5050505050856147c8565b80612b685750600073ffffffffffffffffffffffffffffffffffffffff16600485604051612b2191906155bd565b908152602001604051809103902060009054906101000a900473ffffffffffffffffffffffffffffffffffffffff1673ffffffffffffffffffffffffffffffffffffffff16145b612ba7576040517f08c379a0000000000000000000000000000000000000000000000000000000008152600401612b9e90615927565b60405180910390fd5b83816000019080519060200190612bbf929190614872565b50600481600001604051612bd391906155d4565b908152602001604051809103902060006101000a81549073ffffffffffffffffffffffffffffffffffffffff021916905584600485604051612c1591906155bd565b908152602001604051809103902060006101000a81548173ffffffffffffffffffffffffffffffffffffffff021916908373ffffffffffffffffffffffffffffffffffffffff16021790555060019150819250505092915050565b6000612c7a6146fc565b73ffffffffffffffffffffffffffffffffffffffff16612c98611560565b73ffffffffffffffffffffffffffffffffffffffff1614612cee576040517f08c379a0000000000000000000000000000000000000000000000000000000008152600401612ce590615827565b60405180910390fd5b60008073ffffffffffffffffffffffffffffffffffffffff168473ffffffffffffffffffffffffffffffffffffffff161415612d5f576040517f08c379a0000000000000000000000000000000000000000000000000000000008152600401612d5690615907565b60405180910390fd5b600073ffffffffffffffffffffffffffffffffffffffff168373ffffffffffffffffffffffffffffffffffffffff161415612dcf576040517f08c379a0000000000000000000000000000000000000000000000000000000008152600401612dc690615807565b60405180910390fd5b600073ffffffffffffffffffffffffffffffffffffffff16600360008673ffffffffffffffffffffffffffffffffffffffff1673ffffffffffffffffffffffffffffffffffffffff16815260200190815260200160002060010160009054906101000a900473ffffffffffffffffffffffffffffffffffffffff1673ffffffffffffffffffffffffffffffffffffffff1614612ea0576040517f08c379a0000000000000000000000000000000000000000000000000000000008152600401612e9790615767565b60405180910390fd5b600073ffffffffffffffffffffffffffffffffffffffff16600486604051612ec891906155bd565b908152602001604051809103902060009054906101000a900473ffffffffffffffffffffffffffffffffffffffff1673ffffffffffffffffffffffffffffffffffffffff1614612f4d576040517f08c379a0000000000000000000000000000000000000000000000000000000008152600401612f4490615927565b60405180910390fd5b600073ffffffffffffffffffffffffffffffffffffffff16600160008573ffffffffffffffffffffffffffffffffffffffff1673ffffffffffffffffffffffffffffffffffffffff16815260200190815260200160002060010160009054906101000a900473ffffffffffffffffffffffffffffffffffffffff1673ffffffffffffffffffffffffffffffffffffffff16141561301f576040517f08c379a0000000000000000000000000000000000000000000000000000000008152600401613016906156c7565b60405180910390fd5b6000600160008573ffffffffffffffffffffffffffffffffffffffff1673ffffffffffffffffffffffffffffffffffffffff168152602001908152602001600020905080600301600081548092919061307790615afb565b91905055506000600360008773ffffffffffffffffffffffffffffffffffffffff1673ffffffffffffffffffffffffffffffffffffffff1681526020019081526020016000209050868160000190805190602001906130d7929190614872565b50858160010160006101000a81548173ffffffffffffffffffffffffffffffffffffffff021916908373ffffffffffffffffffffffffffffffffffffffff16021790555060018160010160146101000a81548160ff0219169083151502179055508181600201600082018160000190805461315190615ac9565b61315c929190614938565b506001820160009054906101000a900473ffffffffffffffffffffffffffffffffffffffff168160010160006101000a81548173ffffffffffffffffffffffffffffffffffffffff021916908373ffffffffffffffffffffffffffffffffffffffff16021790555060028201816002019080546131d890615ac9565b6131e3929190614938565b50600382015481600301559050508560048860405161320291906155bd565b908152602001604051809103902060006101000a81548173ffffffffffffffffffffffffffffffffffffffff021916908373ffffffffffffffffffffffffffffffffffffffff160217905550600192508293505050509392505050565b60006132696146fc565b73ffffffffffffffffffffffffffffffffffffffff16613287611560565b73ffffffffffffffffffffffffffffffffffffffff16146132dd576040517f08c379a00000000000000000000000000000000000000000000000000000000081526004016132d490615827565b60405180910390fd5b60008073ffffffffffffffffffffffffffffffffffffffff168473ffffffffffffffffffffffffffffffffffffffff16141561334e576040517f08c379a0000000000000000000000000000000000000000000000000000000008152600401613345906156e7565b60405180910390fd5b600073ffffffffffffffffffffffffffffffffffffffff16600160008673ffffffffffffffffffffffffffffffffffffffff1673ffffffffffffffffffffffffffffffffffffffff16815260200190815260200160002060010160009054906101000a900473ffffffffffffffffffffffffffffffffffffffff1673ffffffffffffffffffffffffffffffffffffffff161415613420576040517f08c379a0000000000000000000000000000000000000000000000000000000008152600401613417906157a7565b60405180910390fd5b600073ffffffffffffffffffffffffffffffffffffffff168373ffffffffffffffffffffffffffffffffffffffff161415613490576040517f08c379a000000000000000000000000000000000000000000000000000000000815260040161348790615707565b60405180910390fd5b600073ffffffffffffffffffffffffffffffffffffffff16600160008573ffffffffffffffffffffffffffffffffffffffff1673ffffffffffffffffffffffffffffffffffffffff16815260200190815260200160002060010160009054906101000a900473ffffffffffffffffffffffffffffffffffffffff1673ffffffffffffffffffffffffffffffffffffffff1614613561576040517f08c379a000000000000000000000000000000000000000000000000000000000815260040161355890615887565b60405180910390fd5b6000600160008673ffffffffffffffffffffffffffffffffffffffff1673ffffffffffffffffffffffffffffffffffffffff1681526020019081526020016000209050600073ffffffffffffffffffffffffffffffffffffffff166002826002016040516135cf91906155d4565b908152602001604051809103902060009054906101000a900473ffffffffffffffffffffffffffffffffffffffff1673ffffffffffffffffffffffffffffffffffffffff161415613655576040517f08c379a000000000000000000000000000000000000000000000000000000000815260040161364c906157e7565b60405180910390fd5b60028160020160405161366891906155d4565b908152602001604051809103902060006101000a81549073ffffffffffffffffffffffffffffffffffffffff02191690556000600160008673ffffffffffffffffffffffffffffffffffffffff1673ffffffffffffffffffffffffffffffffffffffff168152602001908152602001600020905081600001816000019080546136f090615ac9565b6136fb9291906149c5565b50848160010160006101000a81548173ffffffffffffffffffffffffffffffffffffffff021916908373ffffffffffffffffffffffffffffffffffffffff160217905550816002018160020190805461375390615ac9565b61375e9291906149c5565b5081600301548160030181905550600160008773ffffffffffffffffffffffffffffffffffffffff1673ffffffffffffffffffffffffffffffffffffffff168152602001908152602001600020600080820160006137bc91906148f8565b6001820160006101000a81549073ffffffffffffffffffffffffffffffffffffffff02191690556002820160006137f391906148f8565b600382016000905550508460028260020160405161381191906155d4565b908152602001604051809103902060006101000a81548173ffffffffffffffffffffffffffffffffffffffff021916908373ffffffffffffffffffffffffffffffffffffffff1602179055506001925082935050505092915050565b60006138776146fc565b73ffffffffffffffffffffffffffffffffffffffff16613895611560565b73ffffffffffffffffffffffffffffffffffffffff16146138eb576040517f08c379a00000000000000000000000000000000000000000000000000000000081526004016138e290615827565b60405180910390fd5b60008073ffffffffffffffffffffffffffffffffffffffff168473ffffffffffffffffffffffffffffffffffffffff16141561395c576040517f08c379a000000000000000000000000000000000000000000000000000000000815260040161395390615787565b60405180910390fd5b600073ffffffffffffffffffffffffffffffffffffffff16600360008673ffffffffffffffffffffffffffffffffffffffff1673ffffffffffffffffffffffffffffffffffffffff16815260200190815260200160002060010160009054906101000a900473ffffffffffffffffffffffffffffffffffffffff1673ffffffffffffffffffffffffffffffffffffffff161415613a2e576040517f08c379a0000000000000000000000000000000000000000000000000000000008152600401613a2590615947565b60405180910390fd5b6000600360008673ffffffffffffffffffffffffffffffffffffffff1673ffffffffffffffffffffffffffffffffffffffff1681526020019081526020016000209050600073ffffffffffffffffffffffffffffffffffffffff16600482600001604051613a9c91906155d4565b908152602001604051809103902060009054906101000a900473ffffffffffffffffffffffffffffffffffffffff1673ffffffffffffffffffffffffffffffffffffffff161415613b22576040517f08c379a0000000000000000000000000000000000000000000000000000000008152600401613b19906158e7565b60405180910390fd5b838160010160146101000a81548160ff02191690831515021790555060019150819250505092915050565b6000613b576146fc565b73ffffffffffffffffffffffffffffffffffffffff16613b75611560565b73ffffffffffffffffffffffffffffffffffffffff1614613bcb576040517f08c379a0000000000000000000000000000000000000000000000000000000008152600401613bc290615827565b60405180910390fd5b60008073ffffffffffffffffffffffffffffffffffffffff168473ffffffffffffffffffffffffffffffffffffffff161415613c3c576040517f08c379a0000000000000000000000000000000000000000000000000000000008152600401613c3390615787565b60405180910390fd5b600073ffffffffffffffffffffffffffffffffffffffff16600160008673ffffffffffffffffffffffffffffffffffffffff1673ffffffffffffffffffffffffffffffffffffffff16815260200190815260200160002060010160009054906101000a900473ffffffffffffffffffffffffffffffffffffffff1673ffffffffffffffffffffffffffffffffffffffff1614613d0d576040517f08c379a0000000000000000000000000000000000000000000000000000000008152600401613d0490615887565b60405180910390fd5b600073ffffffffffffffffffffffffffffffffffffffff16600284604051613d3591906155bd565b908152602001604051809103902060009054906101000a900473ffffffffffffffffffffffffffffffffffffffff1673ffffffffffffffffffffffffffffffffffffffff1614613dba576040517f08c379a0000000000000000000000000000000000000000000000000000000008152600401613db1906158a7565b60405180910390fd5b6000600160008673ffffffffffffffffffffffffffffffffffffffff1673ffffffffffffffffffffffffffffffffffffffff168152602001908152602001600020905085816000019080519060200190613e15929190614872565b50848160010160006101000a81548173ffffffffffffffffffffffffffffffffffffffff021916908373ffffffffffffffffffffffffffffffffffffffff16021790555083816002019080519060200190613e71929190614872565b5084600285604051613e8391906155bd565b908152602001604051809103902060006101000a81548173ffffffffffffffffffffffffffffffffffffffff021916908373ffffffffffffffffffffffffffffffffffffffff160217905550613ed885610be3565b6001915081925050509392505050565b6000613ef26146fc565b73ffffffffffffffffffffffffffffffffffffffff16613f10611560565b73ffffffffffffffffffffffffffffffffffffffff1614613f66576040517f08c379a0000000000000000000000000000000000000000000000000000000008152600401613f5d90615827565b60405180910390fd5b60008073ffffffffffffffffffffffffffffffffffffffff168473ffffffffffffffffffffffffffffffffffffffff161415613fd7576040517f08c379a0000000000000000000000000000000000000000000000000000000008152600401613fce906156e7565b60405180910390fd5b600073ffffffffffffffffffffffffffffffffffffffff16600360008673ffffffffffffffffffffffffffffffffffffffff1673ffffffffffffffffffffffffffffffffffffffff16815260200190815260200160002060010160009054906101000a900473ffffffffffffffffffffffffffffffffffffffff1673ffffffffffffffffffffffffffffffffffffffff1614156140a9576040517f08c379a00000000000000000000000000000000000000000000000000000000081526004016140a090615947565b60405180910390fd5b600073ffffffffffffffffffffffffffffffffffffffff168373ffffffffffffffffffffffffffffffffffffffff161415614119576040517f08c379a000000000000000000000000000000000000000000000000000000000815260040161411090615707565b60405180910390fd5b600073ffffffffffffffffffffffffffffffffffffffff16600360008573ffffffffffffffffffffffffffffffffffffffff1673ffffffffffffffffffffffffffffffffffffffff16815260200190815260200160002060010160009054906101000a900473ffffffffffffffffffffffffffffffffffffffff1673ffffffffffffffffffffffffffffffffffffffff16146141ea576040517f08c379a00000000000000000000000000000000000000000000000000000000081526004016141e190615767565b60405180910390fd5b6000600360008673ffffffffffffffffffffffffffffffffffffffff1673ffffffffffffffffffffffffffffffffffffffff1681526020019081526020016000209050600073ffffffffffffffffffffffffffffffffffffffff1660048260000160405161425891906155d4565b908152602001604051809103902060009054906101000a900473ffffffffffffffffffffffffffffffffffffffff1673ffffffffffffffffffffffffffffffffffffffff1614156142de576040517f08c379a00000000000000000000000000000000000000000000000000000000081526004016142d5906158e7565b60405180910390fd5b6004816000016040516142f191906155d4565b908152602001604051809103902060006101000a81549073ffffffffffffffffffffffffffffffffffffffff02191690556000600360008673ffffffffffffffffffffffffffffffffffffffff1673ffffffffffffffffffffffffffffffffffffffff1681526020019081526020016000209050816000018160000190805461437990615ac9565b6143849291906149c5565b50848160010160006101000a81548173ffffffffffffffffffffffffffffffffffffffff021916908373ffffffffffffffffffffffffffffffffffffffff1602179055508160010160149054906101000a900460ff168160010160146101000a81548160ff0219169083151502179055508160020181600201600082018160000190805461441190615ac9565b61441c929190614938565b506001820160009054906101000a900473ffffffffffffffffffffffffffffffffffffffff168160010160006101000a81548173ffffffffffffffffffffffffffffffffffffffff021916908373ffffffffffffffffffffffffffffffffffffffff160217905550600282018160020190805461449890615ac9565b6144a3929190614938565b5060038201548160030155905050600360008773ffffffffffffffffffffffffffffffffffffffff1673ffffffffffffffffffffffffffffffffffffffff1681526020019081526020016000206000808201600061450191906148f8565b6001820160006101000a81549073ffffffffffffffffffffffffffffffffffffffff02191690556001820160146101000a81549060ff0219169055600282016000808201600061455191906148f8565b6001820160006101000a81549073ffffffffffffffffffffffffffffffffffffffff021916905560028201600061458891906148f8565b600382016000905550505050846004826000016040516145a891906155d4565b908152602001604051809103902060006101000a81548173ffffffffffffffffffffffffffffffffffffffff021916908373ffffffffffffffffffffffffffffffffffffffff1602179055506001925082935050505092915050565b61460c6146fc565b73ffffffffffffffffffffffffffffffffffffffff1661462a611560565b73ffffffffffffffffffffffffffffffffffffffff1614614680576040517f08c379a000000000000000000000000000000000000000000000000000000000815260040161467790615827565b60405180910390fd5b600073ffffffffffffffffffffffffffffffffffffffff168173ffffffffffffffffffffffffffffffffffffffff1614156146f0576040517f08c379a00000000000000000000000000000000000000000000000000000000081526004016146e790615747565b60405180910390fd5b6146f981614704565b50565b600033905090565b60008060009054906101000a900473ffffffffffffffffffffffffffffffffffffffff169050816000806101000a81548173ffffffffffffffffffffffffffffffffffffffff021916908373ffffffffffffffffffffffffffffffffffffffff1602179055508173ffffffffffffffffffffffffffffffffffffffff168173ffffffffffffffffffffffffffffffffffffffff167f8be0079c531659141344cd1fd0a4f28419497f9722a3daafe3b4186f6b6457e060405160405180910390a35050565b600081518351146147dc576000905061482e565b816040516020016147ed91906155bd565b604051602081830303815290604052805190602001208360405160200161481491906155bd565b604051602081830303815290604052805190602001201490505b92915050565b604051806080016040528060608152602001600073ffffffffffffffffffffffffffffffffffffffff16815260200160608152602001600081525090565b82805461487e90615ac9565b90600052602060002090601f0160209004810192826148a057600085556148e7565b82601f106148b957805160ff19168380011785556148e7565b828001600101855582156148e7579182015b828111156148e65782518255916020019190600101906148cb565b5b5090506148f49190614a52565b5090565b50805461490490615ac9565b6000825580601f106149165750614935565b601f0160209004906000526020600020908101906149349190614a52565b5b50565b82805461494490615ac9565b90600052602060002090601f01602090048101928261496657600085556149b4565b82601f1061497757805485556149b4565b828001600101855582156149b457600052602060002091601f016020900482015b828111156149b3578254825591600101919060010190614998565b5b5090506149c19190614a52565b5090565b8280546149d190615ac9565b90600052602060002090601f0160209004810192826149f35760008555614a41565b82601f10614a045780548555614a41565b82800160010185558215614a4157600052602060002091601f016020900482015b82811115614a40578254825591600101919060010190614a25565b5b509050614a4e9190614a52565b5090565b5b80821115614a6b576000816000905550600101614a53565b5090565b6000614a82614a7d84615998565b615967565b905082815260208101848484011115614a9a57600080fd5b614aa5848285615a5d565b509392505050565b600081359050614abc81615be2565b92915050565b600081359050614ad181615bf9565b92915050565b600082601f830112614ae857600080fd5b8135614af8848260208601614a6f565b91505092915050565b600060208284031215614b1357600080fd5b6000614b2184828501614aad565b91505092915050565b60008060408385031215614b3d57600080fd5b6000614b4b85828601614aad565b9250506020614b5c85828601614aad565b9150509250929050565b60008060408385031215614b7957600080fd5b6000614b8785828601614aad565b9250506020614b9885828601614ac2565b9150509250929050565b60008060408385031215614bb557600080fd5b6000614bc385828601614aad565b925050602083013567ffffffffffffffff811115614be057600080fd5b614bec85828601614ad7565b9150509250929050565b600080600060608486031215614c0b57600080fd5b6000614c1986828701614aad565b935050602084013567ffffffffffffffff811115614c3657600080fd5b614c4286828701614ad7565b925050604084013567ffffffffffffffff811115614c5f57600080fd5b614c6b86828701614ad7565b9150509250925092565b600060208284031215614c8757600080fd5b600082013567ffffffffffffffff811115614ca157600080fd5b614cad84828501614ad7565b91505092915050565b600080600060608486031215614ccb57600080fd5b600084013567ffffffffffffffff811115614ce557600080fd5b614cf186828701614ad7565b9350506020614d0286828701614aad565b9250506040614d1386828701614aad565b9150509250925092565b600080600060608486031215614d3257600080fd5b600084013567ffffffffffffffff811115614d4c57600080fd5b614d5886828701614ad7565b9350506020614d6986828701614aad565b925050604084013567ffffffffffffffff811115614d8657600080fd5b614d9286828701614ad7565b9150509250925092565b614da581615a15565b82525050565b614db481615a15565b82525050565b614dc381615a27565b82525050565b6000614dd4826159dd565b614dde81856159e8565b9350614dee818560208601615a6c565b614df781615bd1565b840191505092915050565b6000614e0d826159dd565b614e1781856159f9565b9350614e27818560208601615a6c565b614e3081615bd1565b840191505092915050565b6000614e46826159dd565b614e508185615a0a565b9350614e60818560208601615a6c565b80840191505092915050565b60008154614e7981615ac9565b614e838186615a0a565b94506001821660008114614e9e5760018114614eaf57614ee2565b60ff19831686528186019350614ee2565b614eb8856159c8565b60005b83811015614eda57815481890152600182019150602081019050614ebb565b838801955050505b50505092915050565b6000614ef86017836159f9565b91507f546869732042616e6b206973206e6f74206578697374210000000000000000006000830152602082019050919050565b6000614f386015836159f9565b91507f4e6f2076616c6964206f6c6420616464726573732100000000000000000000006000830152602082019050919050565b6000614f786015836159f9565b91507f4e6f2076616c6964206e657720616464726573732100000000000000000000006000830152602082019050919050565b6000614fb8602b836159f9565b91507f54686520494341502061646472657373206973206e6f7420616c72656164792060008301527f72656769737465726564210000000000000000000000000000000000000000006020830152604082019050919050565b600061501e6026836159f9565b91507f4f776e61626c653a206e6577206f776e657220697320746865207a65726f206160008301527f64647265737300000000000000000000000000000000000000000000000000006020830152604082019050919050565b6000615084601f836159f9565b91507f5468697320437573746f6d657220697320616c726561647920657869737421006000830152602082019050919050565b60006150c46011836159f9565b91507f4e6f2076616c69642061646472657373210000000000000000000000000000006000830152602082019050919050565b60006151046010836159f9565b91507f42616e6b206e6f742065786973747321000000000000000000000000000000006000830152602082019050919050565b60006151446025836159f9565b91507f546869732042616e6b732068617320736f6d652075736572732072656769737460008301527f65726564210000000000000000000000000000000000000000000000000000006020830152604082019050919050565b60006151aa6027836159f9565b91507f546869732042616e6b204964656e74696669657220436f6465206973206e6f7460008301527f20657869737421000000000000000000000000000000000000000000000000006020830152604082019050919050565b60006152106016836159f9565b91507f4e6f2076616c69642062616e6b206164647265737321000000000000000000006000830152602082019050919050565b60006152506020836159f9565b91507f4f776e61626c653a2063616c6c6572206973206e6f7420746865206f776e65726000830152602082019050919050565b60006152906019836159f9565b91507f4e616d65206f662042616e6b20697320726571756972656421000000000000006000830152602082019050919050565b60006152d06019836159f9565b91507f49434150206164647265737320697320726571756972656421000000000000006000830152602082019050919050565b6000615310601b836159f9565b91507f546869732042616e6b20697320616c72656164792065786973742100000000006000830152602082019050919050565b6000615350602b836159f9565b91507f546869732042616e6b204964656e74696669657220436f646520697320616c7260008301527f65616479206578697374210000000000000000000000000000000000000000006020830152604082019050919050565b60006153b66021836159f9565b91507f42616e6b204964656e74696669657220436f646520697320726571756972656460008301527f21000000000000000000000000000000000000000000000000000000000000006020830152604082019050919050565b600061541c601e836159f9565b91507f54686520494341502061646472657373206973206e6f742065786973742100006000830152602082019050919050565b600061545c601a836159f9565b91507f4e6f2076616c696420637573746f6d65722061646472657373210000000000006000830152602082019050919050565b600061549c6022836159f9565b91507f5468652049434150206164647265737320697320616c7265616479206578697360008301527f74210000000000000000000000000000000000000000000000000000000000006020830152604082019050919050565b60006155026014836159f9565b91507f437573746f6d6572206e6f7420657869737473210000000000000000000000006000830152602082019050919050565b600060808301600083015184820360008601526155528282614dc9565b91505060208301516155676020860182614d9c565b506040830151848203604086015261557f8282614dc9565b9150506060830151615594606086018261559f565b508091505092915050565b6155a881615a53565b82525050565b6155b781615a53565b82525050565b60006155c98284614e3b565b915081905092915050565b60006155e08284614e6c565b915081905092915050565b60006020820190506156006000830184614dab565b92915050565b600060208201905061561b6000830184614dba565b92915050565b6000608082019050818103600083015261563b8187614e02565b905061564a6020830186614dab565b6156576040830185614dba565b81810360608301526156698184615535565b905095945050505050565b6000608082019050818103600083015261568e8187614e02565b905061569d6020830186614dab565b81810360408301526156af8185614e02565b90506156be60608301846155ae565b95945050505050565b600060208201905081810360008301526156e081614eeb565b9050919050565b6000602082019050818103600083015261570081614f2b565b9050919050565b6000602082019050818103600083015261572081614f6b565b9050919050565b6000602082019050818103600083015261574081614fab565b9050919050565b6000602082019050818103600083015261576081615011565b9050919050565b6000602082019050818103600083015261578081615077565b9050919050565b600060208201905081810360008301526157a0816150b7565b9050919050565b600060208201905081810360008301526157c0816150f7565b9050919050565b600060208201905081810360008301526157e081615137565b9050919050565b600060208201905081810360008301526158008161519d565b9050919050565b6000602082019050818103600083015261582081615203565b9050919050565b6000602082019050818103600083015261584081615243565b9050919050565b6000602082019050818103600083015261586081615283565b9050919050565b60006020820190508181036000830152615880816152c3565b9050919050565b600060208201905081810360008301526158a081615303565b9050919050565b600060208201905081810360008301526158c081615343565b9050919050565b600060208201905081810360008301526158e0816153a9565b9050919050565b600060208201905081810360008301526159008161540f565b9050919050565b600060208201905081810360008301526159208161544f565b9050919050565b600060208201905081810360008301526159408161548f565b9050919050565b60006020820190508181036000830152615960816154f5565b9050919050565b6000604051905081810181811067ffffffffffffffff8211171561598e5761598d615ba2565b5b8060405250919050565b600067ffffffffffffffff8211156159b3576159b2615ba2565b5b601f19601f8301169050602081019050919050565b60008190508160005260206000209050919050565b600081519050919050565b600082825260208201905092915050565b600082825260208201905092915050565b600081905092915050565b6000615a2082615a33565b9050919050565b60008115159050919050565b600073ffffffffffffffffffffffffffffffffffffffff82169050919050565b6000819050919050565b82818337600083830152505050565b60005b83811015615a8a578082015181840152602081019050615a6f565b83811115615a99576000848401525b50505050565b6000615aaa82615a53565b91506000821415615abe57615abd615b44565b5b600182039050919050565b60006002820490506001821680615ae157607f821691505b60208210811415615af557615af4615b73565b5b50919050565b6000615b0682615a53565b91507fffffffffffffffffffffffffffffffffffffffffffffffffffffffffffffffff821415615b3957615b38615b44565b5b600182019050919050565b7f4e487b7100000000000000000000000000000000000000000000000000000000600052601160045260246000fd5b7f4e487b7100000000000000000000000000000000000000000000000000000000600052602260045260246000fd5b7f4e487b7100000000000000000000000000000000000000000000000000000000600052604160045260246000fd5b6000601f19601f8301169050919050565b615beb81615a15565b8114615bf657600080fd5b50565b615c0281615a27565b8114615c0d57600080fd5b5056fea2646970667358221220eb07c2644100305f197221524334de98908b1c1c5f2cc6d7c5d4f96a118e423964736f6c63430008000033",
  "immutableReferences": {},
  "source": "// SPDX-License-Identifier: GPL-3.0\npragma solidity ^0.8.0;\n\nimport \"@openzeppelin/contracts/access/Ownable.sol\";\n\ncontract KYCContract is Ownable {\n    \n    struct Customer {        \n        string _addressICAP;\n        address _address;\n        bool isAllowed;    \n        Bank _bank;\n    }\n\n    struct Bank {\n        string _name;\n        address _address;\n        string _identifier;\n        uint _totalCustomers;\n    }\n\n    mapping(address => Bank) private banks;\n    mapping(string => address) private bankRegStore;\n    mapping(address => Customer) private customers;\n    mapping(string => address) private customerRegStore;\n    mapping(address => bool) bankAllowed;\n    \n    function setKycBankCompleted(address _addr) public onlyOwner {\n        bankAllowed[_addr] = true;\n    }\n\n    function setKycBankRevoked(address _addr) public onlyOwner {\n        bankAllowed[_addr] = false;\n    }\n\n    function kycBankCompleted(address _addr) public view returns(bool) {\n        return bankAllowed[_addr];\n    }\n   \n    function addBank(string memory _name, address _address, string memory _identifier) public onlyOwner returns(bool) {\n        bool isAddedToBankListFlag = false;\n        \n        require(_address != address(0), \"No valid address!\");\n        require(banks[_address]._address == address(0), \"This Bank is already exist!\");\n        require(bankRegStore[_identifier] == address(0), \"This Bank Identifier Code is already exist!\");\n        \n        Bank storage _bank = banks[_address];\n        _bank._name = _name;\n        _bank._address = _address;\n        _bank._identifier = _identifier;\n        \n        bankRegStore[_identifier] = _address;\n        setKycBankCompleted(_address);\n        \n        isAddedToBankListFlag = true;\n        return isAddedToBankListFlag;\n    }\n    \n    function removeBank(address _address) public onlyOwner returns(bool) {\n        bool isRemovedFromBankListFlag = false;\n        \n        require(_address != address(0), \"No valid address!\");\n        require(banks[_address]._address != address(0), \"Bank not exists!\");\n        \n        Bank memory _bank = banks[_address];\n        \n        require(_bank._totalCustomers == 0, \"This Banks has some users registered!\");\n        require(bankRegStore[_bank._identifier] != address(0), \"This Bank Identifier Code is not exist!\");\n        \n        delete bankRegStore[_bank._identifier];\n        delete banks[_address];\n        setKycBankRevoked(_address);\n        \n        isRemovedFromBankListFlag = true;\n        return isRemovedFromBankListFlag;\n    }\n    \n    function updateBankAddress(address oldAddress, address newAddress) public onlyOwner returns(bool) {\n        bool isUpdateFromBankListFlag = false;\n        \n        require(oldAddress != address(0), \"No valid old address!\");\n        require(banks[oldAddress]._address != address(0), \"Bank not exists!\");\n        \n        require(newAddress != address(0), \"No valid new address!\");\n        require(banks[newAddress]._address == address(0), \"This Bank is already exist!\");\n        \n        Bank storage oldBank = banks[oldAddress];\n        \n        require(bankRegStore[oldBank._identifier] != address(0), \"This Bank Identifier Code is not exist!\");\n        \n        delete bankRegStore[oldBank._identifier];\n        \n        Bank storage newBank = banks[newAddress];\n        \n        newBank._name = oldBank._name;\n        newBank._address = newAddress;\n        newBank._identifier = oldBank._identifier;\n        newBank._totalCustomers = oldBank._totalCustomers;\n       \n        delete banks[oldAddress];\n        \n        bankRegStore[newBank._identifier] = newAddress;\n        \n        isUpdateFromBankListFlag = true;\n        return isUpdateFromBankListFlag;\n    }\n    \n    function updateBankInfo(address _address, string memory newName, string memory newIdentifier) public onlyOwner returns(bool) {\n        bool isUpdateFromBankListFlag = false;\n        \n        require(_address != address(0), \"No valid address!\");\n        require(banks[_address]._address != address(0), \"Bank not exists!\");\n        require(bytes(newName).length > 0, \"Name of Bank is required!\");\n        require(bytes(newIdentifier).length > 0, \"Bank Identifier Code is required!\");\n        \n        Bank storage _bank = banks[_address];\n        \n        require(bankRegStore[_bank._identifier] != address(0), \"This Bank Identifier Code is not exist!\");\n        require(hashCompareWithLengthCheck(_bank._identifier, newIdentifier) || bankRegStore[newIdentifier] == address(0), \"This Bank Identifier Code is already exist!\");\n       \n        _bank._name = newName;\n        _bank._identifier = newIdentifier;\n        \n        delete bankRegStore[_bank._identifier];\n        \n        bankRegStore[newIdentifier] = _address;\n        \n        isUpdateFromBankListFlag = true;\n        return isUpdateFromBankListFlag;\n    }\n    \n    function getBankDetails(address _address) public view returns (string memory bankName, address bankAddress, string memory bankIdentifier, uint totalCustomersRegistered) {\n        require(_address != address(0), \"No valid address!\");\n        require(banks[_address]._address != address(0), \"Bank not exists!\");\n        \n        Bank memory _bank = banks[_address];\n         \n        return (_bank._name, _bank._address, _bank._identifier, _bank._totalCustomers);\n    }\n    \n    function addCustomer(string memory _addressICAP, address _customerAddress, address _bankAddress) public onlyOwner returns(bool) {\n        bool isAddedToBankListFlag = false;\n        \n        \n        require(_customerAddress != address(0), \"No valid customer address!\");\n        require(_bankAddress != address(0), \"No valid bank address!\");\n        \n        require(customers[_customerAddress]._address == address(0), \"This Customer is already exist!\");\n        require(customerRegStore[_addressICAP] == address(0), \"The ICAP address is already exist!\");\n        require(banks[_bankAddress]._address != address(0), \"This Bank is not exist!\");\n        \n        \n        Bank storage _bank = banks[_bankAddress];\n        _bank._totalCustomers ++;\n        \n        Customer storage _customer = customers[_customerAddress];\n        _customer._addressICAP = _addressICAP;\n        _customer._address = _customerAddress;\n        _customer.isAllowed = true;\n        _customer._bank = _bank;\n        \n        customerRegStore[_addressICAP] = _customerAddress;\n        \n        isAddedToBankListFlag = true;\n        return isAddedToBankListFlag;\n    }\n    \n    function removeCustomer(address _address) public onlyOwner returns(bool)  {\n        bool isRemovedFromCustomerListFlag = false;\n        \n        require(_address != address(0), \"No valid address!\");\n        require(customers[_address]._address != address(0), \"Customer not exists!\");\n        \n        Customer memory _customer = customers[_address];\n        \n        require(customerRegStore[_customer._addressICAP] != address(0), \"The ICAP address is not exist!\");\n        \n        delete customerRegStore[_customer._addressICAP];\n        delete customers[_address];\n        \n        Bank storage _bank = banks[_customer._bank._address];\n        _bank._totalCustomers --;\n        \n        isRemovedFromCustomerListFlag = true;\n        return isRemovedFromCustomerListFlag;\n    }\n    \n    function updateCustomerAddress(address oldAddress, address newAddress) public onlyOwner returns(bool) {\n        bool isUpdateFromCustomerListFlag = false;\n        \n        require(oldAddress != address(0), \"No valid old address!\");\n        require(customers[oldAddress]._address != address(0), \"Customer not exists!\");\n        \n        require(newAddress != address(0), \"No valid new address!\");\n        require(customers[newAddress]._address == address(0), \"This Customer is already exist!\");\n        \n        Customer storage oldCustomer = customers[oldAddress];\n        \n        require(customerRegStore[oldCustomer._addressICAP] != address(0), \"The ICAP address is not exist!\");\n        \n        delete customerRegStore[oldCustomer._addressICAP];\n        \n        Customer storage newCustomer = customers[newAddress];\n        \n        newCustomer._addressICAP = oldCustomer._addressICAP;\n        newCustomer._address = newAddress;\n        newCustomer.isAllowed = oldCustomer.isAllowed;\n        newCustomer._bank = oldCustomer._bank;\n       \n        delete customers[oldAddress];\n        \n        customerRegStore[newCustomer._addressICAP] = newAddress;\n        \n        isUpdateFromCustomerListFlag = true;\n        return isUpdateFromCustomerListFlag;\n    }\n    \n    function updateCustomerICAPaddress(address _address, string memory newAddressICAP) public onlyOwner returns(bool) {\n        bool isUpdateFromCustomerListFlag = false;\n        \n        require(_address != address(0), \"No valid address!\");\n        require(customers[_address]._address != address(0), \"Customer not exists!\");\n        require(bytes(newAddressICAP).length > 0, \"ICAP address is required!\");\n        \n        Customer storage _customer = customers[_address];\n        \n        require(customerRegStore[_customer._addressICAP] != address(0), \"The ICAP address is not exist!\");\n        require(hashCompareWithLengthCheck(_customer._addressICAP, newAddressICAP) || customerRegStore[newAddressICAP] == address(0), \"The ICAP address is already exist!\");\n       \n        _customer._addressICAP = newAddressICAP;\n        \n        delete customerRegStore[_customer._addressICAP];\n        \n        customerRegStore[newAddressICAP] = _address;\n        \n        isUpdateFromCustomerListFlag = true;\n        return isUpdateFromCustomerListFlag;\n    }\n    \n    \n    function changeStatusCustomer(address _address, bool isAllowed) public onlyOwner returns(bool) {\n        bool isUpdateFromCustomerListFlag = false;\n        \n        require(_address != address(0), \"No valid address!\");\n        require(customers[_address]._address != address(0), \"Customer not exists!\");\n        \n        Customer storage _customer = customers[_address];\n        \n        require(customerRegStore[_customer._addressICAP] != address(0), \"The ICAP address is not exist!\");\n       \n        _customer.isAllowed = isAllowed;\n        \n        isUpdateFromCustomerListFlag = true;\n        return isUpdateFromCustomerListFlag;\n    }\n    \n    \n    function updateCustomerBankRegistered(address _address, address newAddressBank) public onlyOwner returns(bool) {\n        bool isUpdateFromCustomerListFlag = false;\n        \n        require(_address != address(0), \"No valid address!\");\n        require(customers[_address]._address != address(0), \"Customer not exists!\");\n        \n        Customer storage _customer = customers[_address];\n        \n        require(customerRegStore[_customer._addressICAP] != address(0), \"The ICAP address is not exist!\");\n        require(banks[newAddressBank]._address != address(0), \"This Bank is not exist!\");\n        \n        Bank memory _bank = banks[newAddressBank];\n        _customer._bank = _bank;\n        \n        isUpdateFromCustomerListFlag = true;\n        return isUpdateFromCustomerListFlag;\n    }\n    \n    \n    function getCustomerDetails(address _address) public view returns (string memory addressICAP, address customerAddress, bool isAllowed,Bank memory bank) {\n        require(_address != address(0), \"No valid address!\");\n        require(customers[_address]._address != address(0), \"Customer not exists!\");\n        \n        Customer memory _customer = customers[_address];\n         \n        return (_customer._addressICAP, _customer._address, _customer.isAllowed, _customer._bank);\n    }\n    \n    function getCustomerAddressFromICAP(string memory _icap) public view returns (address customerAddress) {\n        require(customerRegStore[_icap] != address(0), \"The ICAP address is not already registered!\");\n        return customerRegStore[_icap];\n    }\n \n    function hashCompareWithLengthCheck(string memory a, string memory b) internal pure returns (bool) {\n        if(bytes(a).length != bytes(b).length) {\n            return false;\n        } else {\n            return keccak256(abi.encodePacked(a)) == keccak256(abi.encodePacked(b));\n        }\n    }\n    \n    function concatenate(string memory a, string memory b) internal pure returns (string memory) {\n        return string(abi.encodePacked(a, b));\n    }\n}",
  "sourcePath": "/home/joseph/Documentos/TFM/tfm-proyecto-truffle/contracts/KYCContract.sol",
  "compiler": {
    "name": "solc",
    "version": "0.8.0+commit.c7dfd78e.Emscripten.clang"
  },
  "schemaVersion": "3.4.1",
  "updatedAt": "2021-11-30T04:05:39.446Z",
  "devdoc": {
    "kind": "dev",
    "methods": {
      "owner()": {
        "details": "Returns the address of the current owner."
      },
      "renounceOwnership()": {
        "details": "Leaves the contract without owner. It will not be possible to call `onlyOwner` functions anymore. Can only be called by the current owner. NOTE: Renouncing ownership will leave the contract without an owner, thereby removing any functionality that is only available to the owner."
      },
      "transferOwnership(address)": {
        "details": "Transfers ownership of the contract to a new account (`newOwner`). Can only be called by the current owner."
      }
    },
    "version": 1
  },
  "userdoc": {
    "kind": "user",
    "methods": {},
    "version": 1
  }
}